00000034927193801TMAX   57  r   55  r   84  r  -12  r   15  r   60  r    7  r    2  r   60  r   25  r   58  r  103  r   95  r   62  r   29  r   64  r   24  r   38  r   65  r   30  r   37  r   12  r    5  r   -2  r   10  r   20  r   68  r  103  r  118  r  126  r  137  r
00000034927193801TMIN   -4  r   -8  r  -15  r  -40  r  -20  r    4  r  -25  r  -10  r   -5  r  -25  r  -32  r   20  r    9  r   14  r    7  r    6  r  -12  r  -24  r    9  r    2  r   -2  r  -40  r  -44  r -103  r  -46  r  -20  r  -30  r   20  r   -4  r    4  r   12  r
00000034927193801PRCP    7  r    0  r   94  r   61  r    0  r   12  r    5  r    7  r   12  r    0  r    3  r    4  r    0  r    0  r    0  r   40  r    6  r    0  r    9  r    0  r    0  r    0  r   28  r    0  r   47  r    0  r    0  r    0  r    0  r    0  r    0  r
00000034927193801TAVG    5  r   18  r   27  r  -26  r    9  r   21  r  -10  r   -4  r   10  r  -10  r    4  r   49  r   44  r   25  r   14  r   30  r   -4  r    1  r   25  r   16  r   16  r  -12  r  -22  r  -42  r   -6  r    0  r   15  r   46  r   59  r   58  r   48  r
00000034927193802TMAX  129  r  129  r   95  r   50  r   47  r   38  r   34  r   36  r    3  r  -14  r   41  r  101  r  160  r  123  r  156  r  110  r   40  r   35  r   40  r  -16  r   18  r   -3  r    4  r    9  r  -45  r  -62  r  -44  r  -15  r-9999   -9999   -9999   
00000034927193802TMIN    7  r   62  r   34  r   34  r    6  r  -13  r  -15  r  -15  r  -40  r  -31  r  -39  r    7  r  -11  r  -15  r   30  r   39  r  -20  r  -28  r  -17  r -112  r  -67  r  -96  r -100  r  -67  r -129  r -172  r -111  r -183  r-9999   -9999   -9999   
00000034927193802PRCP   14  r    9  r    0T r    3  r   11  r    0  r    0  r   10  r    1  r    0  r   12  r    0  r    0  r    0T r    0  r   20  r    9  r    0  r   27  r    0  r   10  r    0  r    0  r   45  r    0  r    4  r    7  r    0  r-9999   -9999   -9999   
00000034927193802TAVG   62  r   83  r   42  r   40  r   24  r    8  r    9  r    6  r  -21  r  -24  r   -3  r   41  r   57  r   50  r   86  r   70  r    0  r   -4  r    5  r  -80  r  -14  r  -51  r  -49  r  -34  r  -96  r  -96  r  -76  r -101  r-9999   -9999   -9999   
00000034927193803TMAX  -26  r  -23  r   27  r   24  r   17  r   53  r   66  r   50  r   43  r   67  r   83  r   88  r   47  r  -12  r   50  r   73  r   94  r   87  r   50  r   70  r  153  r  153  r  157  r  122  r  135  r  117  r  144  r  140  r  140  r   48  r   66  r
00000034927193803TMIN -172  r -135  r -129  r  -85  r  -49  r    5  r   12  r    0  r  -10  r    5  r   47  r   15  r  -45  r -164  r  -25  r   -7  r   25  r   40  r  -23  r   -5  r   47  r   26  r   -3  r    8  r   -9  r   33  r   40  r   30  r   48  r   11  r    2  r
00000034927193803PRCP    0  r    0  r    0  r    0  r    0  r   32  r   35  r  153  r   12  r  206  r  131  r   17  r   27  r    1  r    2  r    0  r    0  r  111  r    5  r   20  r    0  r    0  r    0  r    0  r    0  r    0T r    0  r    2  r   87  r    0T r    0T r
00000034927193803TAVG -102  r  -87  r  -41  r  -38  r  -19  r   20  r   46  r   12  r   14  r   31  r   58  r   48  r  -30  r  -75  r    4  r   32  r   55  r   59  r   -7  r   33  r   86  r   78  r   78  r   60  r   51  r   68  r   81  r   85  r   78  r   22  r   28  r
00000034927193804TMAX   68  r   81  r   90  r  206  r  164  r   80  r   87  r  110  r  154  r  133  r  108  r  119  r   85  r   94  r  134  r  198  r  186  r  176  r  147  r  192  r  228  r  245  r  202  r  215  r  234  r  267  r  226  r  184  r  136  r  184  r-9999   
00000034927193804TMIN   27  r   28  r   14  r   26  r   36  r   13  r   38  r   46  r   27  r   41  r   44  r    8  r  -11  r    3  r   34  r    7  r   68  r   85  r   97  r   32  r   57  r   97  r  132  r   85  r   91  r   94  r   78  r  109  r   99  r   39  r-9999   
00000034927193804PRCP   25  r  115  r    0T r    0T r   44  r    0T r   13  r    0T r    0T r   71  r    0  r    5  r   12  r   13  r    0T r    0  r    0T r   42  r    0T r    0  r    0  r    0  r   14  r    0  r    0  r    0  r    0  r   98  r   13  r    0  r-9999   
00000034927193804TAVG   50  r   55  r   55  r  139  r   75  r   46  r   61  r   74  r   96  r   84  r   65  r   50  r   38  r   48  r   76  r   96  r  104  r  112  r  110  r  117  r  138  r  165  r  159  r  147  r  153  r  163  r  149  r  120  r  110  r  113  r-9999   
00000034927193805TMAX  235  r  274  r  202  r  183  r  137  r  190  r  190  r  245  r  279  r  203  r  237  r  249  r  209  r  182  r  212  r  243  r  247  r  261  r  274  r  275  r  292  r  313  r  299  r  294  r  266  r  267  r  231  r  218  r  227  r  253  r  262  r
00000034927193805TMIN   53  r   98  r   88  r  116  r   93  r   84  r   43  r   73  r   94  r  108  r   76  r   94  r  121  r   96  r   51  r   82  r  116  r   79  r   97  r   96  r  117  r  123  r  151  r  121  r  146  r  145  r  125  r  144  r  100  r  103  r  143  r
00000034927193805PRCP    0  r    0  r    0T r    5  r    7  r    0T r    0  r    0  r    0  r    0  r    0  r    0T r  136  r   10  r    0  r    0  r    0  r    0  r    0  r    0  r    0  r    0  r    0  r    0  r    0  r    0T r    0  r    9  r   80  r    2  r    0  r
00000034927193805TAVG  149  r  181  r  142  r  140  r  119  r  126  r  128  r  160  r  181  r  142  r  156  r  181  r  136  r  143  r  141  r  165  r  176  r  178  r  192  r  207  r  208  r  230  r  222  r  210  r  200  r  196  r  170  r  177  r  158  r  186  r  200  r
00000034927193806TMAX  236  r  185  r  197  r  258  r  250  r  275  r  293  r  296  r  241  r  244  r  271  r  305  r  266  r  309  r  305  r  328  r  289  r  237  r  247  r  267  r  291  r  296  r  261  r  305  r  284  r  298  r  326  r  346  r  345  r  370  r-9999   
00000034927193806TMIN  149  r   95  r  123  r  112  r  135  r  121  r  133  r  144  r  160  r  143  r  100  r  112  r  131  r  154  r  145  r  150  r  179  r  155  r   97  r   85  r  115  r  150  r  126  r  107  r  135  r  133  r  142  r  176  r  176  r  184  r-9999   
00000034927193806PRCP   57  r    4  r   44  r   62  r    0  r    0  r    0  r    0  r   27  r   26  r    0  r    0  r    0  r    0  r    0  r    0  r    6  r    0  r    0  r    0  r    0  r    0T r    0  r    0  r    0  r    0  r    0  r    0  r    0  r    0  r-9999   
00000034927193806TAVG  183  r  146  r  146  r  186  r  195  r  204  r  218  r  225  r  176  r  192  r  198  r  216  r  206  r  222  r  230  r  249  r  218  r  191  r  182  r  188  r  217  r  218  r  208  r  214  r  220  r  220  r  238  r  263  r  265  r  279  r-9999   
00000034927193807TMAX  389  r  395  r  382  r  374  r  397  r  386  r  317  r  357  r  390  r  369  r  357  r  329  r  317  r  320  r  327  r  343  r  324  r  325  r  340  r  325  r  309  r  335  r  346  r  329  r  300  r  335  r  358  r  347  r  333  r  332  r  337  r
00000034927193807TMIN  199  r  173  r  197  r  211  r  195  r  212  r  244  r  202  r  218  r  203  r  232  r  229  r  200  r  207  r  174  r  128  r  167  r  148  r  183  r  186  r  163  r  186  r  174  r  202  r  198  r  189  r  197  r  212  r  201  r  187  r  165  r
00000034927193807PRCP    0  r    0  r    0  r    0  r    0T r    0  r    0  r    0  r    0  r    0  r    0  r  140  r   44  r    0  r    0  r    0  r    0  r    0  r    0  r  221  r    0  r    0  r    0  r   35  r   16  r    0  r    0  r    0  r   45  r    0  r    0  r
00000034927193807TAVG  298  r  292  r  297  r  292  r  298  r  300  r  270  r  274  r  297  r  292  r  287  r  250  r  248  r  262  r  256  r  250  r  262  r  244  r  246  r  236  r  236  r  256  r  264  r  262  r  248  r  254  r  276  r  282  r  268  r  258  r  262  r
00000034927193808TMAX  350  r  361  r  360  r  358  r  317  r  299  r  284  r  331  r  341  r  334  r  324  r  285  r  296  r  311  r  349  r  325  r  345  r  345  r  302  r  306  r  320  r  327  r  351  r  349  r  367  r  362  r  366  r  367  r  355  r  345  r  350  r
00000034927193808TMIN  167  r  167  r  160  r  198  r  180  r  189  r  150  r  167  r  213  r  195  r  190  r  191  r  159  r  167  r  175  r  183  r  171  r  193  r  213  r  176  r  189  r  186  r  205  r  202  r  191  r  200  r  195  r  211  r  230  r  198  r  171  r
00000034927193808PRCP    0  r    0  r    0  r    0T r    2  r   14  r    0  r    0  r    0  r    0  r    0  r   54  r    2  r   89  r    0T r    0  r    0  r    0  r   32  r    0  r    0  r    0  r    0  r    0  r    0  r    0  r    0  r    0  r    0  r    0T r    0  r
00000034927193808TAVG  269  r  269  r  264  r  270  r  247  r  226  r  219  r  248  r  272  r  258  r  254  r  218  r  216  r  238  r  252  r  250  r  257  r  270  r  237  r  242  r  254  r  256  r  272  r  275  r  277  r  282  r  306  r  288  r  282  r  270  r  265  r
00000034927193809TMAX  341  r  342  r  344  r  316  r  321  r  366  r  343  r  323  r  260  r  286  r  276  r  274  r  268  r  268  r  331  r  295  r  263  r  207  r  194  r  214  r  185  r  208  r  210  r  220  r  228  r  165  r  149  r  162  r  193  r  223  r-9999   
00000034927193809TMIN  183  r  176  r  201  r  197  r  183  r  163  r  210  r  195  r  173  r  154  r  132  r  145  r  167  r  151  r  154  r  204  r  171  r  160  r  136  r  136  r  160  r  144  r  136  r   95  r   44  r   62  r   16  r   56  r   47  r   58  r-9999   
00000034927193809PRCP    0  r    0  r    0  r    6  r    0  r    0  r    0  r  337  r   11  r    0  r    4  r    0  r    8  r    0  r    0  r   16  r    0  r  140  r   14  r   23  r   95  r    0T r    2  r    0  r    0  r    0  r    0  r    0  r    0  r    0  r-9999   
00000034927193809TAVG  252  r  263  r  264  r  240  r  241  r  261  r  278  r  243  r  208  r  205  r  198  r  206  r  212  r  202  r  240  r  229  r  209  r  168  r  163  r  172  r  168  r  168  r  164  r  148  r  137  r  113  r   84  r  108  r  121  r  128  r-9999   
00000034927193810TMAX  202  r  207  r  231  r  227  r  234  r  226  r  241  r  236  r  229  r  171  r  169  r  192  r  201  r  189  r  215  r  184  r  173  r  180  r  207  r  240  r  218  r  223  r  242  r  198  r  194  r  203  r  149  r  195  r  234  r  274  r  273  r
00000034927193810TMIN   98  r   18  r   14  r   16  r   26  r   58  r   60  r  114  r   70  r  100  r   95  r   64  r   57  r   75  r   68  r  110  r   79  r    8  r   14  r   33  r   97  r   74  r  100  r  103  r   48  r   88  r   30  r  105  r   95  r   97  r   78  r
00000034927193810PRCP    0  r    0  r    0  r    0  r    0  r    0  r    0  r    0T r    4  r  241  r   54  r    2  r    0  r    3  r    4  r    0  r    0  r    0  r    2  r    0  r   32  r    1  r    0  r    1  r    0  r   25  r    1  r    5  r    0T r    0  r    0  r
00000034927193810TAVG  136  r  105  r  113  r  121  r  127  r  136  r  148  r  157  r  144  r  111  r  122  r  124  r  120  r  121  r  136  r  146  r  107  r   89  r  102  r  119  r  152  r  144  r  160  r  140  r  124  r  127  r   95  r  143  r  152  r  173  r  164  r
00000034927193811TMAX  249  r  239  r  242  r  191  r  135  r  150  r  127  r   92  r  164  r  124  r   57  r   41  r   51  r   67  r   86  r  103  r   96  r   89  r   58  r   71  r   75  r   95  r  111  r   99  r  109  r   90  r  121  r   50  r  101  r   53  r-9999   
00000034927193811TMIN   93  r   98  r  115  r  121  r   59  r   33  r   88  r   54  r   33  r   55  r  -31  r  -67  r  -45  r  -63  r  -59  r  -24  r   65  r   44  r   11  r  -11  r  -22  r  -47  r  -14  r  -30  r  -49  r  -45  r  -25  r   -2  r   43  r  -12  r-9999   
00000034927193811PRCP    0T r    3  r    0  r   55  r    0  r    2  r   77  r    0  r    0  r   24  r    0  r    0  r    0  r    0  r    0  r    0  r   22  r   62  r    2  r    5  r    0  r    0  r    0  r    0  r    0  r    0  r    0  r   12  r    0  r    0T r-9999   
00000034927193811TAVG  160  r  164  r  174  r  144  r   86  r   92  r  100  r   70  r   98  r   96  r   -3  r  -19  r   -7  r  -14  r    2  r   40  r   84  r   58  r   29  r   38  r   25  r   12  r   39  r   22  r   16  r   10  r   28  r   21  r   58  r   19  r-9999   
00000034927193812TMAX   95  r  118  r   80  r   71  r   95  r  110  r   84  r   74  r   60  r   60  r   26  r  -15  r  -23  r  -37  r  -30  r    3  r   -5  r  -64  r  -55  r  -29  r  -10  r   -8  r  -11  r  -25  r  -23  r    6  r    6  r  -12  r   -2  r   67  r   45  r
00000034927193812TMIN   -1  r   13  r  -27  r  -28  r   40  r   41  r   60  r   42  r   35  r    3  r  -22  r  -49  r  -55  r -107  r  -70  r  -36  r  -94  r  -97  r  -69  r  -65  r  -47  r  -26  r  -39  r  -77  r  -91  r  -63  r  -66  r  -95  r  -64  r  -24  r  -25  r
00000034927193812PRCP    0T r    0  r    0  r    2  r  145  r  161  r  119  r    0  r    4  r   86  r   15  r    0T r    0  r    0  r    0  r   11  r   49  r    9  r    5  r    0T r    3  r    8  r   28  r    3  r    0  r   54  r    0  r    0  r    0  r    1  r    5  r
00000034927193812TAVG   42  r   50  r   16  r   22  r   62  r   74  r   71  r   50  r   47  r   28  r   -6  r  -38  r  -42  r  -78  r  -47  r  -13  r  -47  r  -77  r  -62  r  -40  r  -25  r  -21  r  -25  r  -49  r  -62  r  -26  r  -42  r  -56  r  -36  r   13  r    0  r
00000034927193901TMAX   16  r   18  r  -27  r  -20  r   52  r   29  r   28  r  -25  r   -8  r   66  r  114  r   54  r   25  r   32  r   90  r   92  r   13  r   65  r  136  r  103  r   56  r   15  r   15  r   65  r   85  r   70  r  126  r  154  r  107  r   54  r   15  r
00000034927193901TMIN  -17  r  -29  r  -57  r  -43  r  -38  r  -71  r  -92  r -112  r  -85  r  -10  r   44  r  -21  r   -9  r  -36  r   11  r    8  r   -6  r  -21  r   -1  r   29  r    9  r  -60  r  -66  r    5  r   -7  r   13  r   16  r   15  r   52  r   12  r  -21  r
00000034927193901PRCP   50  r    0  r   49  r    0  r    0  r    0  r    0  r    0  r   98  r   24  r    0  r    1  r    4  r    0  r    6  r  103  r    0  r    0T r    0  r    0  r    0  r    0  r    0  r    0  r    0  r    0  r    0  r    3  r  105  r    0  r   60  r
00000034927193901TAVG   -3  r  -13  r  -48  r  -30  r    0  r  -25  r  -44  r  -72  r  -36  r   34  r   72  r   -2  r    6  r   -4  r   63  r   44  r    3  r   17  r   62  r   72  r   24  r  -23  r  -32  r   26  r   32  r   36  r   59  r   82  r   75  r   24  r   -8  r
00000034927193902TMAX    6  r  -23  r   -2  r   15  r   40  r   38  r   56  r   32  r   54  r   45  r   75  r   69  r   90  r  117  r   95  r   16  r    7  r   16  r   26  r  101  r   72  r   76  r   45  r   40  r    7  r   -6  r   20  r   75  r-9999   -9999   -9999   
00000034927193902TMIN  -25  r  -40  r  -81  r -106  r   -7  r    3  r  -19  r   16  r   18  r   27  r   17  r    8  r    5  r   56  r  -16  r  -50  r  -96  r  -55  r   -3  r   -3  r   -7  r  -15  r  -14  r  -37  r  -50  r  -52  r  -99  r  -97  r-9999   -9999   -9999   
00000034927193902PRCP  263  r   34  r    0  r    0  r   20  r   95  r   19  r   33  r   84  r   11  r   30  r   24  r    0T r    0  r  161  r    0  r    0  r    0  r    1  r    0  r    0  r    0  r    0  r    0  r    0  r    0  r    0  r    0  r-9999   -9999   -9999   
00000034927193902TAVG   -7  r  -32  r  -47  r  -49  r   24  r    7  r   18  r   24  r   39  r   35  r   40  r   34  r   48  r   80  r   38  r  -17  r  -22  r  -13  r   11  r   44  r   24  r   21  r    7  r  -11  r  -22  r  -33  r  -44  r  -20  r-9999   -9999   -9999   
00000034927193903TMAX   26  r   26  r   18  r   23  r   15  r   10  r   20  r   85  r  143  r   98  r  175  r  107  r  105  r   67  r  166  r  132  r    0  r    5  r   55  r   89  r  155  r  224  r  178  r  185  r  155  r  182  r  185  r  183  r  145  r  143  r  128  r
00000034927193903TMIN  -65  r  -67  r  -65  r  -52  r  -91  r -116  r -142  r  -83  r   14  r    9  r  -23  r   18  r    3  r   12  r  -14  r   -8  r  -26  r  -32  r  -46  r   -7  r   -5  r   -3  r   88  r   36  r   47  r   19  r    7  r    1  r   84  r   73  r   53  r
00000034927193903PRCP    0  r    0  r    0  r    0  r    0  r    0  r    0  r    0  r   18  r   14  r    0  r   12  r   24  r   22  r    0  r  148  r   52  r   20  r    0  r    0T r    0  r    0  r    0  r    0  r    0  r    0  r    0  r    0  r    9  r   38  r    1  r
00000034927193903TAVG  -20  r  -25  r  -16  r  -23  r  -50  r  -60  r  -67  r    1  r   55  r   47  r   64  r   42  r   40  r   27  r   62  r   32  r   -8  r  -18  r   -3  r   33  r   59  r   93  r  127  r   96  r   95  r   86  r   87  r   93  r  108  r   94  r   89  r
00000034927193904TMAX   89  r   45  r  101  r  148  r  208  r  217  r  202  r  193  r  224  r  200  r  149  r   94  r  110  r   84  r   98  r  174  r  215  r  251  r  283  r  246  r  136  r  131  r  188  r  229  r  314  r  263  r  213  r  215  r  234  r  200  r-9999   
00000034927193904TMIN    3  r   -5  r  -34  r  -28  r  -24  r  -10  r   -1  r   33  r   35  r   41  r   52  r    0  r   -9  r   31  r   -7  r   46  r  106  r  115  r   87  r  115  r   69  r   53  r   50  r   74  r  115  r  156  r  155  r  117  r   95  r   98  r-9999   
00000034927193904PRCP   21  r    5  r    0T r    0  r    0  r    0  r    0  r    0T r    0  r    0  r    0T r    0  r    6  r  215  r    2  r    0T r    0  r    0T r    0  r   95  r   38  r   10  r    0  r    0  r    0  r    0T r   40  r    0  r  122  r    0T r-9999   
00000034927193904TAVG   24  r   16  r   32  r   52  r   94  r  100  r   99  r  108  r  131  r  117  r   68  r   43  r   51  r   55  r   42  r  106  r  156  r  179  r  186  r  142  r   95  r   89  r  124  r  145  r  226  r  213  r  168  r  164  r  160  r  144  r-9999   
00000034927193905TMAX  182  r  201  r  220  r  246  r  254  r  269  r  210  r  239  r  208  r  199  r  200  r  256  r  207  r  151  r  203  r  240  r  264  r  286  r  285  r  286  r  291  r  309  r  267  r  226  r  234  r  222  r  208  r  231  r  237  r  244  r  237  r
00000034927193905TMIN  109  r   91  r   89  r   84  r   94  r  134  r  135  r  100  r   97  r   72  r   67  r  134  r  102  r  119  r   99  r  108  r  134  r  129  r  129  r  133  r  183  r  132  r  170  r  107  r  122  r  140  r  138  r  122  r  123  r  148  r  136  r
00000034927193905PRCP    7  r    0  r    0  r    0  r    0  r    0  r   99  r    0  r    0  r    0  r    0T r   20  r  295  r   42  r    0  r    0  r    0  r    0  r    0  r    0  r    0  r    0  r    1  r   28  r   69  r   57  r  994  r    0  r    0  r  125  r  102  r
00000034927193905TAVG  142  r  144  r  154  r  158  r  169  r  200  r  170  r  166  r  157  r  134  r  137  r  183  r  152  r  136  r  158  r  172  r  199  r  203  r  211  r  216  r  228  r  226  r  196  r  162  r  168  r  178  r  160  r  177  r  192  r  181  r  178  r
00000034927193906TMAX  202  r  249  r  256  r  221  r  236  r  205  r  243  r  280  r  299  r  266  r  246  r  250  r  280  r  286  r  299  r  310  r  325  r  317  r  325  r  321  r  261  r  286  r  285  r  266  r  261  r  267  r  313  r  298  r  297  r  307  r-9999   
00000034927193906TMIN  157  r  119  r  147  r  139  r  102  r  107  r  131  r  142  r  156  r  189  r  167  r  174  r  134  r  159  r  149  r  176  r  170  r  184  r  182  r  188  r  165  r  172  r  178  r  181  r  177  r  191  r  177  r  191  r  195  r  202  r-9999   
00000034927193906PRCP   15  r    0  r    4  r    0  r    0  r    2  r    0  r    0  r    0  r    7  r    3  r   62  r    0  r    0  r    0  r    0  r    0  r    0  r    0  r   24  r  143  r   13  r   16  r    0  r   51  r   13  r    0  r    2  r    3  r    0  r-9999   
00000034927193906TAVG  168  r  189  r  194  r  176  r  171  r  160  r  191  r  214  r  225  r  208  r  197  r  211  r  210  r  228  r  238  r  244  r  249  r  258  r  260  r  238  r  205  r  223  r  225  r  221  r  225  r  214  r  250  r  232  r  246  r  254  r-9999   
00000034927193907TMAX  313  r  312  r  329  r  335  r  330  r  327  r  265  r  264  r  284  r  289  r  306  r  324  r  332  r  335  r  296  r  300  r  305  r  318  r  322  r  305  r  228  r  256  r  250  r  305  r  327  r  325  r  325  r  290  r  296  r  306  r  316  r
00000034927193907TMIN  181  r  161  r  152  r  186  r  172  r  172  r  175  r  158  r  146  r  156  r  152  r  173  r  173  r  157  r  193  r  180  r  193  r  196  r  200  r  195  r  191  r  190  r  175  r  124  r  136  r  198  r  192  r  177  r  185  r  166  r  190  r
00000034927193907PRCP    0  r    0  r    0  r    0  r    0  r    0  r  137  r    2  r    0  r   46  r    0  r    0  r    0  r    0  r    1  r  108  r    3  r    8  r    0  r   17  r   24  r    0  r    0  r    0  r    0  r    0  r    0  r    0  r    0  r    0  r    0  r
00000034927193907TAVG  248  r  255  r  254  r  260  r  263  r  248  r  197  r  218  r  222  r  192  r  229  r  253  r  258  r  252  r  230  r  228  r  226  r  246  r  253  r  244  r  210  r  220  r  213  r  222  r  242  r  260  r  255  r  237  r  239  r  240  r  252  r
00000034927193908TMAX  320  r  322  r  270  r  282  r  272  r  280  r  298  r  280  r  264  r  297  r  287  r  232  r  247  r  233  r  270  r  289  r  293  r  295  r  300  r  296  r  237  r  283  r  252  r  256  r  282  r  284  r  295  r  264  r  250  r  269  r  290  r
00000034927193908TMIN  158  r  147  r  183  r  184  r  202  r  193  r  189  r  187  r  187  r  187  r  161  r  154  r  158  r  149  r  147  r  147  r  151  r  153  r  146  r  167  r  157  r  172  r  181  r  164  r  147  r  161  r  171  r  135  r  135  r  123  r  124  r
00000034927193908PRCP    0  r    0  r    0T r  424  r   30  r  401  r    4  r  263  r    6  r   27  r    9  r    0  r    1  r  145  r    0  r    0  r    0  r    0  r    0  r    0  r   11  r    0  r    8  r    0  r    0  r    2  r    0  r    0  r    0  r    0  r    0  r
00000034927193908TAVG  239  r  244  r  219  r  220  r  227  r  226  r  242  r  227  r  226  r  227  r  220  r  194  r  196  r  182  r  205  r  220  r  220  r  224  r  225  r  226  r  199  r  223  r  201  r  200  r  210  r  217  r  222  r  207  r  190  r  195  r  202  r
00000034927193909TMAX  298  r  265  r  247  r  212  r  163  r  202  r  231  r  205  r  228  r  239  r  260  r  265  r  264  r  248  r  264  r  291  r  285  r  275  r  269  r  286  r  286  r  285  r  234  r  236  r  184  r  138  r  143  r  202  r  144  r  134  r-9999   
00000034927193909TMIN  101  r  147  r  151  r   80  r   99  r   53  r   83  r   85  r   52  r   54  r   64  r  104  r  106  r   87  r  112  r  114  r  107  r  105  r  131  r  141  r  105  r  122  r  142  r  109  r  134  r   70  r    9  r   -1  r  107  r   56  r-9999   
00000034927193909PRCP    0  r   14  r    0  r    0T r  257  r    1  r    0  r    0  r    0  r    0  r    0  r    0  r    0  r    0  r    0  r    0  r    0  r    0  r    0  r    0  r    0  r    0T r   55  r    5  r   17  r  142  r    0  r    0  r   32  r    0  r-9999   
00000034927193909TAVG  199  r  204  r  189  r  151  r  114  r  121  r  143  r  137  r  135  r  136  r  154  r  178  r  178  r  163  r  181  r  197  r  184  r  181  r  192  r  206  r  194  r  198  r  173  r  166  r  164  r   83  r   74  r   95  r  112  r   83  r-9999   
00000034927193910TMAX  190  r  188  r  206  r  203  r  173  r  117  r  140  r  135  r  189  r  173  r  138  r  109  r  112  r  169  r  163  r  182  r  222  r  199  r  219  r  143  r  259  r  180  r   58  r  158  r  233  r  188  r  204  r  215  r  223  r  179  r  146  r
00000034927193910TMIN   24  r   40  r  138  r  114  r   33  r   15  r   66  r   25  r   66  r  108  r   82  r   48  r   43  r   35  r   50  r   33  r   44  r   93  r   72  r   28  r   48  r   58  r   17  r   17  r   20  r  100  r   74  r   88  r   92  r   99  r   96  r
00000034927193910PRCP    0  r   22  r  125  r   24  r  206  r   53  r   72  r    0T r   57  r  150  r   80  r   25  r    0  r    0  r    0  r    0  r    0  r    0  r    0T r    5  r    0  r   27  r   38  r    2  r    3  r  269  r    1  r    0  r    0  r   79  r   14  r
00000034927193910TAVG   88  r  112  r  161  r  156  r   66  r   60  r   91  r   75  r  113  r  134  r  105  r   62  r   64  r   80  r  104  r  100  r  126  r  139  r  150  r   65  r  137  r   97  r   35  r   72  r  118  r  116  r  139  r  151  r  142  r  125  r  112  r
00000034927193911TMAX  143  r  118  r   91  r   65  r   25  r   42  r   92  r   52  r   54  r   99  r  119  r   51  r   92  r  118  r   90  r   49  r  128  r  197  r  133  r   63  r   82  r   69  r   84  r   49  r   60  r   66  r   85  r  110  r  131  r  104  r-9999   
00000034927193911TMIN   67  r    3  r   44  r   18  r    8  r   -2  r   15  r   24  r   26  r  -12  r  -28  r    8  r   33  r   55  r   48  r   -7  r  -13  r   70  r   62  r   33  r   43  r   26  r   43  r    3  r  -17  r   -6  r   23  r   13  r   -8  r   25  r-9999   
00000034927193911PRCP   15  r    0  r   43  r  130  r   39  r    0  r    0  r    0  r    0  r    0  r    0  r    0  r    0  r    0  r    5  r    0T r    3  r    2  r   14  r  200  r    0  r   41  r    4  r  156  r    0  r    0  r   80  r    0  r    1  r   47  r-9999   
00000034927193911TAVG   92  r   53  r   67  r   35  r   18  r   24  r   51  r   44  r   40  r   34  r   28  r   33  r   58  r   90  r   61  r   21  r   48  r  122  r   78  r   46  r   52  r   51  r   61  r   24  r   14  r   28  r   44  r   52  r   56  r   60  r-9999   
00000034927193912TMAX   68  r   65  r   50  r   73  r  109  r  141  r  153  r  121  r  111  r  118  r  128  r   83  r  103  r   74  r   53  r  114  r   78  r   -3  r   -3  r   81  r  104  r   42  r  -13  r   46  r   84  r  105  r  116  r  134  r   22  r  115  r   92  r
00000034927193912TMIN  -27  r   21  r   25  r  -21  r    3  r   11  r   21  r   13  r    8  r   10  r   43  r   40  r    6  r   16  r   39  r   20  r  -18  r  -21  r  -40  r  -14  r   32  r -101  r -104  r  -22  r   33  r   57  r   84  r   20  r  -52  r  -53  r  -43  r
00000034927193912PRCP   11  r  101  r   16  r    0  r    0  r    0  r    0  r    0  r    0  r    0  r   94  r    0  r    0  r   13  r    7  r   10  r    0  r    1  r    0  r    0  r    0  r   67  r    6  r    0  r    0  r    7  r   40  r  130  r   47  r   58  r  127  r
00000034927193912TAVG   21  r   44  r   40  r   20  r   50  r   66  r   72  r   61  r   56  r   55  r   75  r   64  r   43  r   45  r   46  r   62  r    8  r  -10  r  -22  r   25  r   70  r  -66  r  -64  r   22  r   63  r   82  r  102  r   95  r  -38  r   12  r  -16  r
00000034927194001TMAX  -43  r  -27  r  -36  r   25  r   15  r   -2  r  -38  r -106  r -186  r -182  r -254  r -112  r  -16  r  -13  r   -1  r   70  r   63  r  125  r   38  r   19  r   77  r   39  r   21  r    3  r    9  r   18  r   17  r    0  r   19  r    7  r  -22  r
00000034927194001TMIN  -95  r  -87  r  -93  r -102  r  -71  r -171  r -110  r -218  r -225  r -254  r -329  r -292  r -191  r  -66  r  -14  r  -21  r   28  r   22  r   -9  r  -41  r  -15  r  -27  r  -20  r  -66  r  -75  r  -61  r  -37  r  -47  r   -5  r  -31  r  -43  r
00000034927194001PRCP   41  r   80  r    4  r   28  r   27  r    0  r    0  r    1  r    3  r   25  r    0  r    0  r    9  r    0T r   41  r    0  r    4  r   13  r    0  r    0  r    0  r    0  r    0T r    0  r    2  r    0  r    0  r    0  r    5  r    0T r    0  r
00000034927194001TAVG  -68  r  -63  r  -52  r  -26  r  -40  r  -86  r  -75  r -166  r -207  r -230  r -290  r -204  r  -76  r  -24  r  -10  r   40  r   48  r   60  r   13  r   -6  r   20  r    3  r   -3  r  -35  r  -34  r  -27  r  -16  r  -19  r    8  r  -20  r  -34  r
00000034927194002TMAX   37  r  -14  r    8  r   29  r   39  r   54  r  101  r  111  r  109  r   75  r  101  r   51  r   35  r   69  r  124  r  138  r   60  r   10  r   47  r   77  r   76  r   45  r   45  r    2  r   83  r   78  r  -22  r  -14  r   41  r-9999   -9999   
00000034927194002TMIN  -26  r  -50  r  -28  r   -2  r  -26  r  -12  r   21  r   24  r    8  r   10  r   21  r  -33  r  -46  r   -2  r   26  r   27  r  -11  r  -24  r  -20  r    3  r   18  r  -18  r  -42  r  -37  r  -16  r  -44  r  -57  r -117  r  -78  r-9999   -9999   
00000034927194002PRCP    0T r    2  r   53  r    4  r    0  r   17  r   32  r    0  r    0  r   14  r    4  r   39  r    0  r    0T r    6  r   37  r    0T r    0  r    0  r   51  r   16  r    0T r    0  r    0  r    2  r    1  r    0T r    0  r    0  r-9999   -9999   
00000034927194002TAVG   -4  r  -32  r   -9  r   10  r   -4  r   13  r   55  r   57  r   52  r   44  r   48  r   -5  r  -10  r   28  r   66  r   60  r   -1  r   -4  r    6  r   24  r   47  r   -3  r  -12  r  -19  r   28  r   -6  r  -46  r  -61  r  -24  r-9999   -9999   
00000034927194003TMAX   59  r  106  r    7  r   24  r   51  r   93  r  138  r  153  r    3  r   16  r   11  r  -24  r   80  r  137  r  166  r  148  r   29  r    3  r   -5  r  -36  r  -56  r   -6  r   -5  r   11  r   22  r   58  r   74  r  178  r  253  r  256  r  237  r
00000034927194003TMIN  -20  r    5  r  -47  r  -67  r   -9  r   10  r    8  r   -7  r  -28  r  -48  r  -28  r  -77  r  -76  r   46  r   38  r   27  r  -15  r  -24  r  -37  r -181  r -187  r -148  r -104  r -164  r -131  r  -49  r   -2  r   20  r  138  r   97  r   44  r
00000034927194003PRCP    0T r    0  r  134  r    4  r    0  r   22  r   17  r    2  r    0T r    0  r  126  r    2  r    0  r    0  r    0  r  101  r  534  r  242  r  102  r    1  r    4  r    0  r    0  r    0T r    0  r    0T r    0T r    0  r    0  r    0  r    0T r
00000034927194003TAVG   22  r   31  r  -28  r  -12  r   22  r   44  r   60  r   70  r  -20  r  -26  r  -10  r  -50  r   36  r   83  r  110  r  100  r  -10  r  -14  r  -22  r -109  r -108  r  -61  r  -53  r  -71  r  -49  r    4  r   36  r   95  r  202  r  161  r  136  r
00000034927194004TMAX   59  r  102  r  120  r   83  r  148  r  177  r  215  r  233  r  212  r  183  r  151  r  205  r  278  r  270  r  249  r  166  r  229  r  182  r  199  r  186  r  205  r  236  r  250  r  181  r  125  r  195  r  215  r  245  r  208  r  165  r-9999   
00000034927194004TMIN   10  r  -18  r   56  r   58  r   44  r   51  r   46  r   98  r  113  r   53  r   28  r   38  r   55  r   88  r  130  r   83  r   51  r  111  r   94  r   52  r   59  r   76  r   83  r  120  r   77  r   72  r   91  r   75  r  106  r   20  r-9999   
00000034927194004PRCP    0  r    0  r    7  r    1  r   73  r    0T r    0T r    0T r    0T r    0  r    0  r    0  r    0  r    0  r    0T r    4  r    0  r   15  r    0  r    0T r    0  r    0  r    2  r  116  r    0  r    0T r    0  r    0  r    0T r   63  r-9999   
00000034927194004TAVG   29  r   38  r   80  r   67  r   90  r  104  r  134  r  160  r  150  r  112  r   94  r  117  r  140  r  167  r  173  r  104  r  131  r  134  r  138  r  120  r  138  r  162  r  166  r  137  r  104  r  128  r  148  r  156  r  142  r   56  r-9999   
00000034927194005TMIN  -12  r   27  r   38  r   28  r   55  r   88  r   79  r   72  r   92  r  105  r   74  r  130  r   72  r  130  r  114  r   63  r   80  r  123  r  154  r  133  r  142  r  123  r  112  r  115  r  130  r  109  r  121  r  147  r   91  r   83  r  143  r
00000034927194005PRCP    0  r    0  r    0  r    0  r    0  r    0  r   66  r    7  r    2  r    8  r    0T r    0  r   22  r   53  r   91  r    0  r    0  r    0  r    5  r  129  r   47  r    6  r    0  r   55  r    3  r    0  r    0  r    0  r  172  r    0  r    0  r
00000034927194005TAVG   48  r   75  r   96  r  112  r  117  r  150  r  106  r  133  r  136  r  155  r  138  r  148  r  143  r  154  r  128  r  128  r  168  r  203  r  219  r  188  r  178  r  157  r  166  r  158  r  174  r  190  r  192  r  185  r  122  r  157  r  196  r
00000034927194006TMIN  141  r  135  r  133  r  162  r  148  r  153  r  179  r  180  r  158  r  128  r  167  r  152  r  138  r  136  r   97  r  123  r  161  r  155  r  131  r  149  r  131  r  122  r  152  r  185  r  134  r  162  r  168  r  196  r  168  r  163  r-9999   
00000034927194006PRCP    0  r    0  r    0  r    0  r    0  r    0  r    0T r    0T r  109  r    0  r   48  r   55  r   55  r    0  r    0  r    0  r    0T r    0  r    0  r    0  r    0  r    0  r    2  r    0  r   12  r   15  r    0  r    0  r    0  r    0T r-9999   
00000034927194006TAVG  214  r  211  r  215  r  218  r  221  r  236  r  225  r  193  r  172  r  190  r  180  r  174  r  154  r  176  r  181  r  195  r  207  r  212  r  212  r  212  r  208  r  213  r  206  r  208  r  210  r  226  r  246  r  246  r  241  r  238  r-9999   
00000034927194007TMAX-9999   -9999   -9999   -9999   -9999   -9999   -9999   -9999   -9999   -9999     337  r  347  r  308  r  304  r  279  r  276  r  292  r  327  r  317  r  341  r  337  r  339  r  338  r  306  r  272  r  265  r  288  r  328  r  344  r  309  r  290  r
00000034927194007TMIN  191  r  188  r  183  r  178  r  173  r  151  r  175  r  173  r  173  r  167  r  197  r  188  r  206  r  196  r  197  r  134  r  201  r  157  r  161  r  190  r  203  r  185  r  174  r  185  r  192  r  188  r  164  r  166  r  152  r  200  r  202  r
00000034927194007PRCP   12  r   36  r  129  r   77  r    0T r   12  r    8  r    0T r    0  r    0  r    0  r    0  r   76  r    0  r    0T r    2  r    0  r    0  r    0  r    0  r    0  r    0  r    0  r    0T r    0T r    1  r    8  r    0  r    0  r    0  r    8  r
00000034927194007TAVG  242  r  208  r  202  r  199  r  202  r  218  r  226  r  234  r  238  r  248  r  265  r  262  r  238  r  253  r  235  r  208  r  241  r  258  r  246  r  264  r  266  r  262  r  260  r  243  r  228  r  210  r  228  r  246  r  259  r  252  r  232  r
00000034927194008TMAX  310  r  269  r  274  r  283  r  269  r  290  r  326  r  329  r  339  r  338  r  350  r  356  r  339  r  351  r  350  r  315  r  284  r  291  r  273  r  264  r  302  r  307  r  350  r  301  r  281  r  317  r  288  r  252  r  242  r  266  r  288  r
00000034927194008TMIN  201  r  203  r  134  r  191  r  190  r  151  r  191  r  206  r  194  r  209  r  193  r  167  r  174  r  195  r  210  r  205  r  188  r  184  r  193  r  165  r  173  r  180  r  181  r  219  r  166  r  199  r  197  r  167  r  138  r   98  r  146  r
00000034927194008PRCP    0T r    0  r    0  r   26  r    2  r    0  r    0T r    0T r    0  r    0  r    0  r    0  r    0  r    0  r    0  r    8  r  130  r    0  r  123  r    0  r    7  r    0  r    0  r    0  r    0  r    0  r    0T r  440  r    0  r    0  r    0  r
00000034927194008TAVG  252  r  222  r  208  r  223  r  227  r  224  r  255  r  262  r  271  r  274  r  264  r  260  r  256  r  271  r  270  r  258  r  224  r  237  r  216  r  212  r  232  r  239  r  259  r  244  r  218  r  251  r  229  r  186  r  186  r  183  r  206  r
00000034927194009TMAX  295  r  300  r  247  r  250  r  196  r  197  r  215  r  255  r  276  r  270  r  271  r  294  r  277  r  218  r  265  r  265  r  292  r  172  r  178  r  197  r  225  r  244  r  253  r  239  r  244  r  272  r  253  r  250  r  278  r  292  r-9999   
00000034927194009TMIN  142  r  189  r  181  r  146  r  114  r   94  r   44  r   68  r   73  r  159  r  134  r  145  r  137  r  168  r  112  r  103  r  102  r  100  r   89  r  104  r  133  r   97  r   81  r  155  r  122  r   94  r  134  r  149  r  104  r  106  r-9999   
00000034927194009PRCP    0  r    0  r    6  r   40  r    0T r    0  r    0  r    0  r    0  r    0  r    0  r    0  r   20  r    2  r    0  r    0  r   10  r   73  r   14  r    0T r    0  r    0  r    0  r    2  r    2  r    0T r    2  r    0  r    0  r    1  r-9999   
00000034927194009TAVG  211  r  234  r  203  r  180  r  154  r  124  r  128  r  159  r  164  r  204  r  193  r  206  r  200  r  182  r  179  r  176  r  182  r  125  r  131  r  156  r  166  r  154  r  160  r  184  r  170  r  175  r  180  r  184  r  182  r  180  r-9999   
00000034927194010TMAX  297  r  244  r  185  r  182  r  205  r  253  r  215  r  220  r  195  r  210  r  165  r   87  r   70  r  139  r  160  r  162  r  164  r  137  r  164  r  128  r  110  r  133  r  140  r   86  r   62  r  187  r  209  r  182  r  158  r   91  r  110  r
00000034927194010TMIN   98  r  154  r  104  r   78  r   66  r   53  r  136  r   49  r   95  r  101  r   87  r   30  r   25  r  -32  r   -8  r   65  r   52  r   64  r   66  r   85  r   51  r   42  r   67  r   27  r   17  r   15  r  132  r  106  r   32  r   17  r   52  r
00000034927194010PRCP    0  r    0T r    6  r    0  r    0  r    0T r    5  r    1  r    1  r    0  r    0T r    0  r    0  r    0  r    0  r    0  r    0T r   51  r  133  r  153  r    3  r   14  r    1  r   33  r    0  r   32  r   26  r   51  r   61  r    0  r   30  r
00000034927194010TAVG  190  r  186  r  122  r  124  r  128  r  147  r  168  r  118  r  144  r  141  r  114  r   55  r   48  r   40  r   71  r  101  r  105  r   96  r  112  r  100  r   76  r   86  r   94  r   42  r   34  r   96  r  166  r  138  r   68  r   48  r   74  r
00000034927194011TMAX  108  r  118  r  104  r  188  r  178  r  163  r  130  r  215  r  135  r  118  r   86  r   90  r  144  r  116  r  180  r  153  r  200  r  184  r  164  r  167  r  186  r  137  r   96  r   47  r   66  r   75  r  101  r  137  r  110  r   78  r-9999   
00000034927194011TMIN   63  r   80  r   69  r   63  r   83  r   53  r   -4  r   27  r   74  r   84  r   54  r   37  r   50  r   68  r   21  r   24  r    6  r   63  r   33  r    0  r    3  r   48  r    2  r   23  r   11  r   52  r   51  r   48  r  -11  r   33  r-9999   
00000034927194011PRCP  267  r  261  r    0  r    0  r    0T r    0T r    0  r    0  r    0T r    0  r    0  r    2  r   67  r   36  r    2  r    2  r    2  r    2  r    0  r    2  r    1  r    0  r    1  r    0T r    0  r    0T r    0  r    0  r    0  r    0T r-9999   
00000034927194011TAVG   87  r   94  r   82  r  109  r  133  r  114  r   58  r   98  r  111  r  102  r   63  r   60  r   87  r   91  r   87  r   73  r   83  r  108  r   87  r   75  r   76  r   86  r   36  r   35  r   44  r   61  r   73  r   84  r   44  r   51  r-9999   
00000034927194012TMAX   62  r    9  r    0  r   64  r   89  r   95  r  127  r  169  r  148  r  182  r  172  r   73  r  154  r   96  r   37  r   61  r   46  r    0  r   16  r    8  r    8  r   -4  r   -6  r   60  r   60  r  -48  r -109  r -105  r -102  r   25  r   47  r
00000034927194012TMIN    7  r   -9  r  -26  r  -37  r  -27  r   12  r   30  r   58  r   50  r   53  r   46  r   26  r   51  r   36  r    6  r   33  r   -5  r  -25  r  -49  r  -22  r  -23  r  -33  r  -57  r  -44  r  -52  r -138  r -154  r -213  r -233  r -130  r   16  r
00000034927194012PRCP   12  r   19  r    0  r    0T r    0  r    1  r   14  r   12  r   97  r   37  r    4  r  183  r   40  r   44  r   77  r    4  r   63  r    0  r    0  r    2  r    0  r    0  r    0  r   12  r  436  r   72  r    0  r    0  r    0  r    0T r    1  r
00000034927194012TAVG   33  r   -6  r  -18  r   24  r   36  r   45  r   84  r  132  r   83  r   98  r   96  r   44  r   92  r   64  r   24  r   50  r    3  r  -12  r  -16  r   -6  r  -12  r  -26  r  -39  r   -3  r  -21  r  -96  r -122  r -150  r -167  r  -26  r   35  r
00000034927194101TMAX  104  r  111  r   56  r  -70  r  -26  r   12  r   41  r   42  r   14  r   -2  r    5  r    0  r  -33  r  -72  r  -75  r   80  r  150  r  128  r   82  r   29  r   60  r  100  r  146  r  134  r  115  r   85  r   66  r   23  r  -84  r  -85  r  -73  r
00000034927194101TMIN   43  r   56  r  -79  r -113  r -100  r  -57  r  -22  r  -14  r   -4  r  -23  r  -22  r  -34  r -133  r -157  r -252  r -173  r   43  r   11  r  -28  r  -42  r    6  r   53  r   83  r   53  r   69  r   56  r   22  r  -99  r -103  r -158  r -155  r
00000034927194101PRCP    6  r   75  r  272  r    0T r    0  r    0  r    0  r    0  r   24  r   12  r   73  r    5  r    0  r    0T r    0  r    0T r    0  r    7  r    6  r    0  r    0T r    0T r    0  r    0T r   54  r   59  r   41  r   52  r    4  r    1  r    0T r
00000034927194101TAVG   74  r   86  r  -30  r  -88  r  -56  r  -22  r    3  r   11  r    0  r  -14  r   -6  r  -24  r  -86  r -104  r -174  r  -12  r   83  r   56  r    8  r  -12  r   35  r   78  r  101  r  101  r   93  r   65  r   43  r  -82  r  -92  r -112  r -114  r
00000034927194102TMAX -102  r -109  r  -25  r   13  r   25  r   46  r   40  r   94  r   70  r   20  r   35  r   65  r  115  r  127  r  150  r  146  r  107  r  135  r  150  r  118  r   97  r  137  r  146  r  155  r  155  r  142  r   95  r   43  r-9999   -9999   -9999   
00000034927194102TMIN -196  r -213  r -130  r  -38  r    5  r  -23  r  -10  r   10  r    1  r   -4  r   -2  r   22  r    3  r   90  r   97  r   82  r   18  r    1  r   82  r   81  r   67  r   40  r   85  r   87  r   93  r   76  r   38  r   18  r-9999   -9999   -9999   
00000034927194102PRCP    0  r    0T r    0  r   68  r   55  r    0  r    0  r    0  r    0  r   42  r    0T r    9  r   15  r    0T r    1  r    8  r    0  r    0  r    7  r  141  r   92  r    0  r   19  r    1  r    2  r    0T r    0T r    0  r-9999   -9999   -9999   
00000034927194102TAVG -152  r -150  r  -78  r   -6  r   14  r    4  r   10  r   60  r   27  r    8  r   10  r   54  r   63  r  105  r  115  r  105  r   40  r   62  r  121  r   99  r   84  r   80  r  114  r  112  r  125  r  100  r   62  r   29  r-9999   -9999   -9999   
00000034927194103TMAX   35  r   87  r   46  r   70  r  110  r  112  r  134  r  151  r   85  r   60  r  151  r  122  r   87  r   39  r   30  r   14  r   65  r   50  r  -11  r   28  r   30  r   10  r   74  r  125  r   56  r   72  r   69  r   62  r  170  r  149  r  169  r
00000034927194103TMIN   -2  r   -5  r   -7  r   14  r   33  r    3  r  -15  r   30  r   34  r   34  r   32  r   87  r   15  r  -22  r  -38  r  -54  r   -2  r  -54  r  -78  r  -12  r  -43  r  -47  r  -45  r   38  r    2  r  -30  r   30  r   -1  r   17  r   63  r   74  r
00000034927194103PRCP    3  r    0  r    0  r    0  r    0  r    0  r    0  r   42  r    4  r    1  r    0  r    0  r   37  r    0T r    1  r    4  r   20  r   38  r   55  r   55  r    0T r   32  r    1  r    0  r   99  r    0  r  133  r   21  r    0T r   55  r    0  r
00000034927194103TAVG   10  r   27  r   18  r   39  r   60  r   46  r   40  r   66  r   52  r   46  r   81  r  102  r   28  r   -1  r   -8  r  -23  r   33  r  -10  r  -42  r    3  r  -11  r  -22  r   17  r   80  r   29  r   19  r   46  r   33  r   84  r  112  r  113  r
00000034927194104TMAX  222  r  270  r  238  r  236  r  206  r  243  r  296  r  294  r  230  r  200  r  160  r  115  r   73  r   61  r  133  r  154  r  209  r  214  r  226  r  219  r  220  r  239  r  234  r  207  r  190  r  199  r  282  r  264  r  224  r  165  r-9999   
00000034927194104TMIN   39  r   77  r   83  r  111  r   70  r   61  r   85  r   88  r  128  r  127  r   85  r   59  r   24  r    6  r   -9  r   26  r    5  r   35  r   37  r   63  r   56  r   90  r   92  r  105  r   82  r   93  r   62  r  113  r  124  r   85  r-9999   
00000034927194104PRCP    0  r    0  r    0  r    0  r    0  r    0  r    0  r    0  r    0  r   25  r   11  r   15  r   76  r    1  r    0  r    0  r    0  r    0  r    0  r    0  r    0  r    0  r    0  r    0  r    0  r    0  r    0  r    0  r    6  r  102  r-9999   
00000034927194104TAVG  126  r  163  r  160  r  170  r  130  r  144  r  186  r  184  r  180  r  155  r  115  r   80  r   42  r   30  r   62  r   96  r  113  r  128  r  134  r  142  r  143  r  166  r  158  r  152  r  129  r  138  r  181  r  185  r  162  r  118  r-9999   
00000034927194105TMAX  183  r  195  r  242  r  241  r  194  r  254  r  231  r  173  r  198  r  175  r  241  r  209  r  183  r  173  r  174  r  190  r  188  r  244  r  261  r  278  r  277  r  208  r  172  r  204  r  180  r  156  r  215  r  217  r  227  r  263  r  293  r
00000034927194105TMIN   90  r  106  r  118  r  140  r  115  r   70  r  145  r  102  r   70  r  104  r  128  r  110  r  122  r  103  r  108  r   88  r  122  r  132  r  105  r  154  r  161  r  112  r   89  r  105  r  102  r  123  r   87  r  123  r  133  r  105  r  145  r
00000034927194105PRCP    1  r    1  r    0  r   47  r    4  r    0  r    0  r   15  r    0  r    7  r   40  r   70  r    0T r   32  r   25  r   24  r   68  r    1  r    0  r    0  r    0  r    0  r  149  r    0  r    6  r   27  r    3  r    0  r    0  r    0  r    0  r
00000034927194105TAVG  134  r  143  r  171  r  178  r  153  r  164  r  164  r  130  r  135  r  138  r  177  r  143  r  144  r  132  r  132  r  136  r  149  r  178  r  183  r  210  r  214  r  146  r  120  r  150  r  142  r  132  r  157  r  166  r  180  r  195  r  232  r
00000034927194106TMAX  293  r  260  r  219  r  257  r  260  r  265  r  278  r  271  r  286  r  190  r  224  r  265  r  295  r  289  r  313  r  328  r  334  r  316  r  337  r  306  r  234  r  227  r  250  r  256  r  255  r  238  r  241  r  260  r  286  r  311  r-9999   
00000034927194106TMIN  136  r  155  r  147  r  100  r  110  r  112  r  118  r  118  r  123  r  154  r  163  r  137  r  152  r  168  r  170  r  167  r  182  r  192  r  202  r  197  r  168  r  161  r  163  r  155  r  137  r  159  r  154  r  112  r  123  r  184  r-9999   
00000034927194106PRCP    0  r    0T r   17  r    0  r    0  r    0  r    0  r    0  r   27  r  137  r   11  r    0  r    0  r    0  r    0  r    0  r    0  r    6  r    0  r  142  r   29  r   14  r    0  r    0  r    0  r  103  r   58  r    0  r    0  r    4  r-9999   
00000034927194106TAVG  222  r  209  r  175  r  189  r  191  r  196  r  212  r  212  r  204  r  175  r  184  r  195  r  222  r  229  r  244  r  254  r  263  r  253  r  267  r  226  r  200  r  192  r  204  r  205  r  198  r  186  r  192  r  193  r  216  r  246  r-9999   
00000034927194107TMAX  323  r  323  r  327  r  327  r  320  r  255  r  280  r  247  r  332  r  332  r  295  r  306  r  331  r  315  r  277  r  273  r  293  r  346  r  286  r  275  r  274  r  282  r  283  r  293  r  309  r  314  r  307  r  283  r  283  r  296  r  295  r
00000034927194107TMIN  168  r  173  r  156  r  160  r  174  r  195  r  180  r  190  r  175  r  196  r  198  r  195  r  160  r  184  r  191  r  191  r  203  r  157  r  202  r  200  r  179  r  175  r  186  r  163  r  143  r  168  r  190  r  204  r  185  r  146  r  153  r
00000034927194107PRCP    0  r    0  r    0  r    0  r    0  r   11  r   28  r   89  r    0  r    0  r    1  r    0  r    0  r    0  r    4  r   15  r    0  r    0  r    5  r    0T r    0  r    0  r    0T r    0  r    0  r    0  r    0  r    0  r    1  r    0  r    0  r
00000034927194107TAVG  256  r  258  r  251  r  263  r  242  r  218  r  216  r  210  r  254  r  267  r  240  r  248  r  259  r  260  r  214  r  220  r  244  r  258  r  240  r  232  r  224  r  228  r  224  r  230  r  231  r  249  r  242  r  231  r  226  r  226  r  230  r
00000034927194108TMAX  297  r  307  r  297  r  266  r  268  r  274  r  292  r  252  r  216  r  245  r  275  r  240  r  243  r  263  r  290  r  298  r  310  r  318  r  302  r  308  r  282  r  307  r  279  r  250  r  248  r  214  r  237  r  257  r  251  r  295  r  327  r
00000034927194108TMIN  192  r  175  r  182  r  179  r  183  r  164  r  156  r  169  r  155  r  134  r  183  r  161  r  153  r  144  r  146  r  166  r  154  r  131  r  176  r  143  r  160  r  168  r  186  r  161  r  145  r  159  r  131  r  100  r  122  r  102  r  132  r
00000034927194108PRCP    0  r    0  r    0  r  195  r   40  r   72  r    0  r    0  r   96  r    0  r   56  r    2  r    4  r    0  r    0  r    0  r    0  r    0  r    0  r    0  r    0  r    0  r    1  r   50  r    5  r  110  r   11  r    0  r    5  r    0  r    0  r
00000034927194108TAVG  232  r  236  r  231  r  216  r  220  r  216  r  224  r  213  r  185  r  190  r  220  r  189  r  192  r  206  r  217  r  232  r  235  r  239  r  241  r  234  r  226  r  234  r  218  r  194  r  194  r  180  r  180  r  175  r  189  r  200  r  225  r
00000034927194109TMAX  357  r  345  r  275  r  240  r  240  r  217  r  251  r  273  r  293  r  295  r  277  r  216  r  310  r  337  r  335  r  272  r  216  r  221  r  211  r  170  r  170  r  217  r  216  r  170  r  154  r  185  r  191  r  140  r   90  r   96  r-9999   
00000034927194109TMIN  157  r  146  r  175  r  148  r  119  r  163  r  114  r  104  r  125  r  137  r  171  r  126  r  100  r  136  r  168  r  170  r  168  r  105  r   76  r   88  r  -15  r   30  r  131  r   69  r   -5  r   35  r   33  r   36  r   -9  r  -15  r-9999   
00000034927194109PRCP    0  r    0  r   95  r   26  r    0  r   10  r    0  r    0  r    0  r    0  r    0  r    0  r    0  r    0  r    0  r    0  r    0  r    0  r    0  r    0  r    0  r    0  r    0  r    9  r    0  r    0  r    0  r   14  r    0T r   12  r-9999   
00000034927194109TAVG  243  r  244  r  194  r  179  r  181  r  177  r  170  r  187  r  205  r  212  r  217  r  168  r  189  r  229  r  235  r  217  r  184  r  144  r  138  r  110  r   80  r  117  r  158  r  111  r   68  r   99  r  109  r   63  r   40  r   25  r-9999   
00000034927194110TMAX  110  r  178  r  166  r  174  r  190  r  159  r  108  r   83  r  126  r  170  r  150  r  246  r  247  r  190  r   37  r   55  r  120  r  126  r  169  r  153  r  148  r  164  r  177  r  180  r  196  r  234  r  260  r  273  r  250  r  192  r  209  r
00000034927194110TMIN  -29  r  -18  r   40  r   57  r  107  r   30  r   30  r   17  r   50  r   42  r   43  r   98  r  132  r   33  r   18  r    6  r  -33  r   -5  r   15  r   78  r   68  r   82  r  106  r   48  r   53  r   18  r   35  r   75  r  124  r   69  r   87  r
00000034927194110PRCP    0  r    0  r    0  r    0  r    0  r    0  r   71  r   42  r    8  r    0  r  152  r    0  r    0  r   21  r    5  r    6  r    0  r    0  r    0  r  101  r   21  r    0  r    0  r    0  r    0  r    0  r    0  r    0  r    5  r    0  r    0  r
00000034927194110TAVG   31  r   76  r   98  r  118  r  132  r   91  r   59  r   45  r   76  r  106  r   87  r  180  r  179  r   92  r   24  r   21  r   36  r   56  r   84  r  107  r  103  r  115  r  127  r  104  r  108  r  105  r  134  r  153  r  163  r  118  r  139  r
00000034927194111TMAX  212  r  177  r  158  r  124  r  119  r  140  r  177  r  120  r  113  r   90  r   40  r    7  r  -24  r  -91  r -116  r  -78  r  -49  r  -54  r  -13  r    6  r   -4  r   -7  r  -48  r  -46  r  -50  r   -4  r   -4  r  -23  r  -53  r  -14  r-9999   
00000034927194111TMIN  115  r   70  r   33  r   85  r   71  r   67  r   86  r   57  r   72  r   22  r  -16  r  -34  r  -93  r -155  r -191  r -188  r -161  r -136  r -129  r  -37  r  -19  r  -57  r  -78  r  -68  r  -61  r  -54  r  -25  r  -56  r  -75  r -117  r-9999   
00000034927194111PRCP   12  r   25  r    1  r   68  r    0  r   37  r  180  r    2  r   37  r   20  r  105  r  174  r    4  r    0  r    0  r    0  r    0  r    0  r    0  r    3  r    0  r    3  r    8  r    0  r    7  r   12  r    3  r    0  r    2  r    0  r-9999   
00000034927194111TAVG  145  r  109  r   96  r  101  r   88  r   95  r  118  r   81  r   89  r   43  r    9  r  -11  r  -56  r -118  r -155  r -137  r -114  r -107  r  -70  r  -18  r  -10  r  -38  r  -64  r  -56  r  -56  r  -29  r  -20  r  -42  r  -64  r  -65  r-9999   
00000034927194112TMAX   12  r  -32  r  -24  r   40  r  -16  r  -44  r  -80  r   59  r   94  r   70  r   53  r   86  r  107  r   95  r   78  r   80  r  105  r  150  r   75  r  100  r   50  r  -38  r  -28  r   46  r   37  r   44  r   -4  r  -66  r  -60  r  -27  r  -50  r
00000034927194112TMIN  -33  r  -77  r -125  r  -40  r  -73  r -100  r -235  r  -82  r  -49  r  -25  r  -39  r   47  r   43  r   41  r   21  r   53  r   62  r   74  r   26  r   38  r  -45  r  -84  r -135  r  -29  r   -5  r   -5  r  -90  r -251  r -262  r  -86  r -126  r
00000034927194112PRCP    7  r    4  r    5  r   55  r    0  r    6  r    0  r    0  r    0  r   83  r   61  r    3  r    0  r    0  r    3  r   14  r   36  r    0  r    0  r    0  r   26  r    2  r    0T r    0  r   66  r  158  r  439  r    0  r    0  r   42  r    0  r
00000034927194112TAVG  -12  r  -56  r  -58  r    4  r  -51  r  -76  r -129  r   19  r   20  r   24  r   38  r   73  r   68  r   69  r   54  r   65  r   84  r  108  r   44  r   58  r  -35  r  -65  r  -78  r   20  r   22  r   18  r  -65  r -151  r -113  r  -62  r  -89  r
00000034927194201TMAX  -77  r  -80  r -144  r -124  r  -74  r   34  r   53  r   40  r    0  r   83  r   68  r   20  r   87  r   52  r   56  r   10  r  -14  r  -70  r  -95  r  -68  r  -76  r  -13  r -138  r -147  r -153  r  -38  r  -30  r   15  r   -5  r    0  r   38  r
00000034927194201TMIN -156  r -146  r  -28  r -170  r -147  r -185  r   25  r  -10  r  -46  r  -65  r    2  r   -2  r    8  r    2  r  -15  r  -16  r  -73  r -137  r -136  r  -99  r -110  r -140  r -206  r -197  r -231  r -271  r -111  r  -49  r  -48  r  -47  r  -39  r
00000034927194201PRCP    0  r    4  r    3  r    3  r    0  r    0  r    0  r   16  r    0  r    0  r    0  r    0  r    3  r  115  r    0  r   12  r    0  r    0T r    0  r    2  r    0  r   40  r    0  r    2  r    0  r    0  r    0  r    0  r   19  r    0  r    4  r
00000034927194201TAVG -115  r -123  r -180  r -142  r -127  r  -23  r   37  r    8  r  -16  r   13  r   16  r    8  r   38  r   23  r    8  r   -2  r  -47  r -118  r -112  r  -84  r  -98  r -102  r -178  r -171  r -203  r -139  r  -63  r  -19  r  -35  r  -27  r   -7  r
00000034927194202TMAX    2  r   10  r  -14  r  -65  r  -26  r  -35  r  -14  r   12  r   37  r   58  r   31  r   75  r   41  r   37  r   27  r   41  r   16  r   45  r   41  r   40  r   14  r   -9  r   73  r   85  r   48  r  142  r   80  r   60  r-9999   -9999   -9999   
00000034927194202TMIN  -55  r  -27  r  -71  r -107  r -119  r -107  r -111  r  -71  r  -72  r   11  r   -5  r    9  r    8  r  -28  r  -16  r  -11  r   -3  r  -11  r  -31  r  -20  r  -66  r  -94  r  -78  r  -33  r  -28  r   11  r   31  r   -1  r-9999   -9999   -9999   
00000034927194202PRCP    0  r    0  r    0  r    6  r    3  r    0  r    0  r    0  r    0  r    0  r    0  r    9  r   12  r    0  r    0  r    0  r    1  r    0  r    0  r    0  r    0  r    0  r    0  r    0  r    0  r    0  r   72  r  119  r-9999   -9999   -9999   
00000034927194202TAVG  -26  r  -11  r  -36  r  -89  r  -69  r  -76  r  -66  r  -31  r  -11  r   21  r   15  r   32  r   18  r    0  r    2  r    9  r    6  r   12  r    2  r    5  r  -28  r  -60  r  -18  r   13  r    2  r   56  r   48  r   19  r-9999   -9999   -9999   
00000034927194203TMAX   50  r   80  r   39  r   24  r    2  r   38  r   40  r   -8  r   14  r   24  r   35  r  113  r  139  r   -1  r   15  r  -14  r   30  r   72  r  100  r   55  r  -40  r  -68  r  -14  r   45  r  110  r  115  r  144  r  165  r  190  r  134  r   48  r
00000034927194203TMIN  -21  r  -25  r   14  r  -23  r  -24  r   -5  r  -49  r  -64  r  -85  r  -32  r   -6  r    9  r   -5  r  -88  r  -76  r  -88  r  -73  r  -48  r  -28  r  -41  r -127  r -133  r -135  r  -29  r  -43  r   32  r   35  r  -16  r   49  r  -14  r  -18  r
00000034927194203PRCP    1  r    1  r   63  r   19  r   22  r    0  r  122  r    0  r    0  r   53  r    2  r    0  r   58  r   65  r    0  r    0  r    0  r    0  r    0  r   20  r    4  r    0  r    0  r    0  r    0  r    0  r    0  r    0  r    2  r   35  r   13  r
00000034927194203TAVG    4  r   13  r   22  r   -5  r  -13  r   13  r  -16  r  -40  r  -39  r   -6  r   12  r   52  r   38  r  -70  r  -32  r  -51  r  -37  r    2  r   28  r   -1  r  -90  r -101  r  -76  r    0  r   35  r   66  r   76  r   74  r  113  r    6  r   11  r
00000034927194204TMAX   97  r   59  r   84  r   95  r  166  r  130  r  105  r  134  r  148  r  168  r  196  r  190  r  156  r  154  r  120  r   73  r   96  r   62  r  150  r  176  r  212  r  195  r  202  r  201  r  200  r  161  r  153  r  195  r  178  r  250  r-9999   
00000034927194204TMIN   20  r    2  r   27  r   35  r   48  r   15  r   -2  r  -15  r  -27  r   -4  r  -24  r   25  r   74  r   70  r   65  r   26  r   40  r   44  r   51  r   45  r   44  r   47  r   56  r   60  r   92  r   58  r   99  r   77  r   92  r   54  r-9999   
00000034927194204PRCP   14  r    0T r    0  r   41  r    0  r   12  r    0  r    0  r    0  r    0  r    0  r    0  r    2  r   24  r   47  r  156  r  115  r   77  r    6  r    0  r    0  r    0  r    0  r    0  r    0  r  119  r   16  r    1  r    0  r    0  r-9999   
00000034927194204TAVG   48  r   26  r   56  r   53  r  104  r   49  r   42  r   54  r   61  r   74  r   85  r  113  r  106  r   96  r   90  r   47  r   57  r   52  r   86  r  100  r  124  r  122  r  130  r  128  r  134  r  113  r  119  r  134  r  124  r  148  r-9999   
00000034927194205TMAX  281  r  253  r  267  r  230  r  177  r  156  r  187  r  227  r  252  r  187  r  182  r  221  r  199  r  201  r  230  r  285  r  277  r  291  r  305  r  266  r  208  r  230  r  244  r  221  r  205  r  232  r  218  r  230  r  237  r  241  r  232  r
00000034927194205TMIN  144  r  135  r  107  r  141  r  104  r   78  r   58  r   58  r  115  r  122  r  118  r   85  r  109  r  133  r  114  r  137  r  135  r  138  r  116  r  135  r  146  r  140  r  128  r  136  r   94  r   90  r  110  r   86  r   83  r  105  r  142  r
00000034927194205PRCP    0  r    0  r    0  r    0  r   57  r    0  r    0  r    0  r    6  r    0T r    0  r    0  r    2  r    7  r    0  r    0  r    0  r    0  r    0  r    2  r  139  r   19  r    0  r    0  r    0  r  220  r   28  r    0  r   17  r   95  r    4  r
00000034927194205TAVG  203  r  185  r  192  r  183  r  133  r  112  r  125  r  150  r  174  r  150  r  147  r  159  r  150  r  161  r  171  r  208  r  212  r  216  r  215  r  197  r  155  r  167  r  181  r  180  r  152  r  152  r  164  r  164  r  160  r  166  r  181  r
00000034927194206TMAX  263  r  283  r  303  r  306  r  217  r  217  r  191  r  185  r  221  r  253  r  289  r  300  r  293  r  318  r  329  r  276  r  287  r  279  r  280  r  272  r  256  r  305  r  334  r  305  r  244  r  267  r  284  r  299  r  313  r  290  r-9999   
00000034927194206TMIN  106  r  130  r  145  r  151  r  158  r  142  r  142  r   99  r  128  r  151  r  112  r  173  r  150  r  137  r  169  r  160  r  139  r  175  r  162  r  188  r  170  r  118  r  157  r  165  r  164  r  138  r  138  r  138  r  162  r  196  r-9999   
00000034927194206PRCP    0  r    0  r    0  r  115  r  151  r   47  r  269  r   17  r    0  r    0  r    0  r    0T r    0  r    0  r    0  r    0  r    0  r    0  r    0  r    0  r    0  r    0  r    0  r    2  r   72  r    0  r    0  r    0  r    0  r    0  r-9999   
00000034927194206TAVG  189  r  214  r  232  r  212  r  178  r  177  r  161  r  146  r  173  r  196  r  213  r  227  r  220  r  236  r  250  r  216  r  229  r  233  r  221  r  230  r  207  r  224  r  258  r  208  r  197  r  199  r  212  r  232  r  246  r  244  r-9999   
00000034927194406TMAX  218  r  269  r  296  r  274  r  234  r  246  r  247  r  256  r  301  r  266  r  273  r  277  r  284  r  294  r  259  r  266  r  230  r  233  r  233  r  238  r  281  r  297  r  272  r  283  r  301  r  265  r  222  r  246  r  261  r  280  r-9999   
00000034927194406TMIN  124  r  120  r  121  r   97  r  120  r  140  r  103  r  102  r  133  r  143  r  188  r  168  r  172  r  162  r  173  r  162  r  178  r  170  r  161  r  157  r  134  r  157  r  178  r  154  r  175  r  179  r  118  r  102  r  132  r  133  r-9999   
00000034927194406PRCP    0  r    0  r    0  r    0  r    2  r    0  r    0  r    0  r    0  r   12  r   12  r    0T r   24  r    9  r  106  r  387  r   45  r    0  r    0  r    0  r    0  r    0  r    0  r    0T r    0  r  111  r    0  r    0  r    0  r    0  r-9999   
00000034927194406TAVG  171  r  202  r  208  r  202  r  177  r  186  r  180  r  191  r  214  r  197  r  220  r  216  r  217  r  222  r  206  r  195  r  197  r  198  r  195  r  194  r  210  r  233  r  228  r  219  r  240  r  206  r  177  r  186  r  200  r  218  r-9999   
00000034927194407TMAX  292  r  276  r  271  r  281  r  297  r  297  r  278  r  265  r  285  r  313  r  305  r  318  r  322  r  314  r  273  r  268  r  279  r  292  r  302  r  298  r  291  r  300  r  304  r  330  r  314  r  290  r  266  r  230  r  264  r  286  r  298  r
00000034927194407TMIN  144  r  172  r  155  r  167  r  159  r  149  r  179  r  176  r  179  r  172  r  172  r  151  r  188  r  189  r  189  r  184  r  171  r  168  r  147  r  172  r  164  r  160  r  164  r  179  r  208  r  199  r  187  r  162  r  118  r  149  r  133  r
00000034927194407PRCP    0  r    0  r    0  r    0  r    0  r    0  r  300  r    7  r    5  r    0  r    0T r    0  r    0  r    0T r   99  r    0  r    0  r    0  r    0  r    0  r   14  r    0  r    0  r    0  r    0  r    0  r    3  r  102  r    1  r    1  r    0  r
00000034927194407TAVG  224  r  224  r  226  r  225  r  229  r  237  r  217  r  206  r  225  r  240  r  247  r  241  r  259  r  246  r  214  r  225  r  224  r  230  r  240  r  234  r  231  r  226  r  237  r  258  r  252  r  236  r  221  r  180  r  191  r  220  r  229  r
00000034927194409TMAX  306  r  303  r  321  r  264  r  302  r  325  r  335  r  325  r  274  r  315  r  326  r  333  r  275  r  227  r  193  r  169  r  191  r  193  r  202  r  185  r  141  r  136  r  170  r  242  r  241  r  252  r  262  r  253  r  249  r  249  r-9999   
00000034927194409TMIN  105  r  133  r  156  r  183  r  133  r  152  r  147  r  160  r  156  r  152  r  173  r  163  r  142  r  120  r  120  r   67  r   20  r   74  r   96  r   98  r  109  r  104  r   70  r   74  r  117  r   91  r   91  r  111  r  123  r  123  r-9999   
00000034927194409PRCP    0  r    0  r    0T r   10  r    0  r    0  r    0  r    0  r    6  r    4  r    0T r    0  r    0  r    0  r    0  r    0  r    0  r    0  r    4  r    4  r   34  r   69  r    1  r    0  r    0  r    0  r    0  r    0T r    0  r    0  r-9999   
00000034927194409TAVG  205  r  210  r  238  r  210  r  220  r  236  r  237  r  245  r  221  r  216  r  234  r  231  r  205  r  167  r  148  r  110  r  105  r  128  r  136  r  139  r  124  r  119  r  112  r  150  r  164  r  157  r  168  r  171  r  171  r  171  r-9999   
00000034927194410TMAX  244  r  233  r  251  r  269  r  269  r  227  r  186  r  206  r  221  r  258  r  252  r  226  r  197  r  171  r  136  r  209  r  196  r  207  r  203  r  226  r  216  r  188  r  171  r  180  r  166  r  115  r   86  r   74  r   57  r  156  r  134  r
00000034927194410TMIN   65  r   94  r   96  r   99  r  115  r   89  r  119  r   94  r   48  r   17  r   39  r   72  r  113  r   98  r  111  r   74  r  119  r  117  r  145  r   94  r   72  r   75  r   69  r   31  r   62  r   53  r   18  r  -10  r   24  r   57  r   56  r
00000034927194410PRCP    0T r    0  r    0  r    0  r    0  r    0  r    8  r    0T r    0  r    0  r    0  r    0  r    0  r   18  r  128  r    0  r    9  r   59  r  213  r    0T r    0T r    0  r    0  r    0  r   25  r  163  r    0  r    0  r  118  r    0  r    0  r
00000034927194410TAVG  153  r  151  r  160  r  169  r  178  r  156  r  150  r  137  r  119  r  132  r  134  r  138  r  146  r  127  r  120  r  136  r  146  r  153  r  164  r  148  r  132  r  124  r  105  r   94  r  104  r   74  r   50  r   34  r   40  r   93  r   85  r
00000034927194411TMAX  106  r  112  r  104  r  166  r  174  r  156  r  146  r  127  r  119  r  189  r  211  r  184  r  103  r  128  r  182  r  199  r  194  r  142  r   37  r   16  r   64  r  136  r  169  r  119  r  125  r  107  r  109  r   61  r   37  r   43  r-9999   
00000034927194411TMIN   65  r   81  r   82  r   60  r   54  r   92  r   81  r   84  r   54  r   38  r   74  r   44  r   80  r   91  r   84  r   75  r  101  r   29  r    9  r  -15  r   -3  r   -8  r    8  r   -5  r   -9  r   -2  r   23  r   -4  r    9  r   12  r-9999   
00000034927194411PRCP    0T r    1  r    2  r    4  r    0  r    0  r    8  r   19  r   10  r    0  r    0  r    0T r   30  r   12  r    1  r    0  r   12  r  125  r    0  r    0  r    9  r    2  r    0  r    0  r    0T r    0  r    0  r    0  r    1  r    5  r-9999   
00000034927194411TAVG   84  r   94  r   90  r   97  r  100  r  112  r  106  r   94  r   84  r  102  r  117  r   93  r   95  r  104  r  116  r  136  r  137  r   69  r   23  r   -1  r   21  r   39  r   67  r   39  r   40  r   42  r   49  r   25  r   22  r   30  r-9999   
00000034927194412TMAX   41  r   23  r   79  r   31  r   56  r  100  r  121  r  161  r  150  r  107  r  116  r   62  r   15  r   15  r   63  r   56  r   44  r   19  r   -3  r   17  r   24  r   41  r    9  r  -20  r  -15  r  -48  r  -55  r  -39  r  -47  r   75  r   39  r
00000034927194412TMIN   19  r    8  r  -15  r  -56  r  -38  r   41  r   51  r   48  r   73  r    7  r   -4  r   14  r  -68  r  -80  r  -12  r  -41  r  -37  r  -15  r  -46  r  -82  r  -66  r  -84  r  -83  r  -96  r  -50  r  -63  r  -95  r -147  r -165  r  -50  r  -40  r
00000034927194412PRCP    0  r    2  r    1  r    0T r    2  r   84  r  129  r    0T r    0T r    0  r    0  r    0  r    0  r    0  r    0  r    0  r    0  r    0  r    0  r    0  r    0  r    0  r    0  r   16  r   28  r   20  r    0  r    0  r    7  r    3  r   21  r
00000034927194412TAVG   30  r   14  r   10  r  -25  r    4  r   72  r   78  r   96  r   96  r   55  r   41  r   28  r  -19  r  -40  r   12  r   -1  r   -6  r   -7  r  -31  r  -33  r  -26  r  -28  r  -43  r  -52  r  -38  r  -59  r  -63  r  -75  r -107  r   11  r    6  r
00000034927194501TMAX   24  r   14  r    3  r   -3  r   15  r   11  r   41  r   15  r   41  r   33  r   29  r   23  r    0  r  -36  r   51  r    5  r   15  r  -33  r    3  r    1  r   43  r   88  r   77  r   18  r   47  r   38  r   27  r  101  r   92  r  134  r   35  r
00000034927194501TMIN    2  r   -9  r   -7  r  -21  r  -18  r  -26  r  -12  r  -46  r  -24  r    4  r  -27  r  -43  r  -45  r  -56  r  -75  r  -31  r  -33  r  -78  r  -86  r  -60  r  -28  r  -11  r  -15  r  -20  r  -51  r  -56  r  -35  r   -6  r    6  r   12  r   -7  r
00000034927194501PRCP   55  r    2  r    2  r   10  r    0T r    0  r    0  r    0  r    0  r   40  r    0  r    0  r    1  r    3  r    2  r   20  r   47  r    0  r    0  r    8  r    8  r    0  r    0  r    0  r    0  r    0  r   40  r    0  r    0  r    0  r    0  r
00000034927194501TAVG    9  r    3  r   -4  r  -15  r   -6  r   -7  r    5  r  -18  r    4  r   12  r   -3  r   -8  r  -32  r  -48  r  -23  r  -14  r  -10  r  -64  r  -50  r  -27  r    4  r   38  r    6  r   -9  r  -20  r  -18  r   -4  r   36  r   36  r   44  r   13  r
00000034927194502TMAX   14  r   16  r   24  r   64  r   71  r   79  r   17  r  -16  r  -12  r  -12  r   52  r   98  r  155  r   83  r   49  r   44  r   11  r   -8  r    5  r  -39  r  -39  r  -37  r  -65  r -120  r  -76  r  -49  r    5  r    2  r-9999   -9999   -9999   
00000034927194502TMIN  -24  r  -53  r  -27  r    0  r  -43  r  -54  r  -66  r  -52  r  -55  r  -46  r  -63  r  -70  r  -23  r  -16  r    0  r  -12  r  -35  r  -71  r  -68  r -102  r -126  r -142  r -122  r -218  r -213  r -117  r -102  r  -54  r-9999   -9999   -9999   
00000034927194502PRCP    1  r    0  r    0  r    0  r    0  r    0  r    0T r    0  r    2  r    2  r    2  r    1  r    0  r  117  r   46  r  140  r   30  r   21  r    3  r    0  r    0  r    0  r    3  r    0  r    0  r   45  r   27  r   14  r-9999   -9999   -9999   
00000034927194502TAVG  -10  r  -34  r   -7  r   15  r   -2  r   -1  r  -29  r  -37  r  -32  r  -33  r  -30  r   -4  r   50  r    6  r   22  r   22  r  -20  r  -32  r  -28  r  -86  r  -90  r -102  r -100  r -173  r -152  r  -86  r  -45  r  -34  r-9999   -9999   -9999   
00000034927194503TMAX   22  r   73  r   81  r   18  r   66  r   39  r    8  r   37  r   34  r   24  r   17  r   17  r  -35  r   10  r   64  r   69  r  116  r  130  r   79  r   44  r   65  r   78  r   96  r   68  r  104  r  112  r  149  r  141  r  146  r  186  r  220  r
00000034927194503TMIN  -71  r   14  r    3  r    3  r  -19  r  -70  r  -63  r  -72  r  -12  r  -60  r -112  r  -60  r  -75  r -107  r    0  r   24  r   39  r    5  r   12  r  -22  r  -50  r  -22  r   29  r   12  r   -3  r   -5  r   35  r   -8  r  -13  r   25  r   50  r
00000034927194503PRCP   64  r    0T r  324  r  105  r   20  r    7  r   14  r   37  r    8  r   21  r   35  r   58  r    0  r    0  r    0  r    7  r    0T r    0  r    9  r   15  r    0  r    0  r   81  r    6  r    5  r    0  r    0  r    0  r    0  r    0  r    0  r
00000034927194503TAVG   -5  r   44  r   21  r    8  r   13  r  -15  r  -24  r  -28  r    2  r  -33  r  -32  r  -34  r  -62  r  -43  r   34  r   48  r   66  r   62  r   23  r    4  r   -1  r   27  r   38  r   34  r   38  r   45  r   79  r   58  r   63  r  106  r  117  r
00000034927194504TMAX  226  r  194  r  205  r  196  r  197  r  185  r  176  r  125  r   68  r  106  r  146  r  125  r  139  r  166  r  109  r   74  r   79  r   75  r   86  r  103  r  107  r   84  r  164  r  142  r  154  r  145  r  165  r  196  r  206  r  208  r-9999   
00000034927194504TMIN   21  r   53  r   34  r   27  r   55  r   49  r   11  r    2  r    4  r  -14  r    6  r   64  r   79  r  -11  r    4  r    4  r    3  r    9  r  -16  r  -26  r   53  r   41  r    9  r   63  r   26  r   64  r   86  r   67  r   52  r   49  r-9999   
00000034927194504PRCP    0  r    0  r    0  r    0  r    0  r    0  r    0  r  256  r   19  r    0  r    0  r    0  r    5  r    0  r  123  r   11  r   45  r   10  r    0T r    0T r   17  r    3  r    0T r   25  r   95  r   51  r   85  r    0T r    0  r    0  r-9999   
00000034927194504TAVG  108  r  120  r  114  r  116  r  106  r  112  r   98  r   40  r   30  r   45  r   71  r   89  r   92  r   83  r   68  r   32  r   30  r   34  r   33  r   43  r   70  r   66  r   84  r  102  r   80  r   98  r  114  r  122  r  128  r  135  r-9999   
00000034927194505TMAX  169  r  159  r  222  r  239  r  201  r  231  r  191  r  149  r  188  r  136  r  103  r  164  r  197  r  219  r  241  r  243  r  180  r  225  r  232  r  269  r  275  r  209  r  259  r  259  r  287  r  285  r  341  r  282  r  216  r  244  r  249  r
00000034927194505TMIN  107  r  103  r   68  r   72  r  101  r   55  r  104  r  105  r   87  r   84  r   48  r   13  r   20  r   56  r   58  r   98  r  107  r   54  r  121  r   44  r  103  r   83  r   91  r  154  r  177  r   75  r  116  r  168  r   96  r   79  r   84  r
00000034927194505PRCP    0  r    2  r    0  r    0T r    6  r    0  r    0  r   27  r    0  r   96  r    0T r    0  r    3  r    0  r    0  r    0  r   45  r    0  r    0  r    0  r    0  r   48  r    0  r    0  r    0  r    0  r    0  r    0  r    0  r    0  r    0  r
00000034927194505TAVG  133  r  123  r  148  r  157  r  146  r  143  r  139  r  124  r  128  r  106  r   72  r   94  r  106  r  136  r  150  r  159  r  138  r  146  r  174  r  183  r  193  r  148  r  184  r  208  r  221  r  173  r  230  r  201  r  166  r  168  r  180  r
00000034927194506TMAX  264  r  286  r  287  r  244  r  226  r  212  r  219  r  223  r  239  r  274  r  287  r  261  r  259  r  266  r  271  r  263  r  226  r  257  r  229  r  222  r  217  r  244  r  261  r  241  r  210  r  213  r  249  r  284  r  284  r  284  r-9999   
00000034927194506TMIN   92  r   88  r  112  r  151  r  155  r  136  r  138  r  149  r  146  r  107  r  152  r  158  r  166  r  162  r  147  r  183  r  151  r  167  r  121  r  109  r  120  r  131  r  117  r  136  r  128  r  132  r  147  r  161  r  140  r  141  r-9999   
00000034927194506PRCP    0  r    0  r    0  r    0T r   87  r    0T r    6  r   10  r    0T r    0T r   52  r   15  r  229  r   12  r    0T r    0  r    0  r    0T r    0T r  206  r   60  r    0T r    0  r    0T r   59  r    4  r   80  r    0  r    0  r    5  r-9999   
00000034927194506TAVG  188  r  197  r  212  r  187  r  176  r  178  r  171  r  175  r  185  r  205  r  204  r  197  r  204  r  216  r  218  r  209  r  182  r  203  r  177  r  147  r  171  r  189  r  193  r  186  r  164  r  167  r  196  r  220  r  214  r  221  r-9999   
00000034927194507TMAX  258  r  277  r  315  r  337  r  321  r  293  r  262  r  264  r  281  r  275  r  306  r  297  r  306  r  303  r  261  r  271  r  286  r  304  r  270  r  259  r  259  r  286  r  306  r  310  r  288  r  281  r  293  r  319  r  334  r  309  r  280  r
00000034927194507TMIN  147  r  129  r  148  r  161  r  190  r  193  r  183  r  158  r  139  r  187  r  193  r  195  r  192  r  186  r  185  r  157  r  104  r  127  r  156  r  152  r  107  r  120  r  145  r  159  r  189  r  175  r  136  r  144  r  148  r  148  r  188  r
00000034927194507PRCP   27  r    0  r    0  r    0  r    0T r    0  r  116  r   50  r    0  r    1  r    0  r    0  r    0  r    0T r    0  r    0  r    0  r   86  r    3  r    7  r    0  r    0  r    0  r    0  r    4  r    0  r    0  r    0  r    0  r    1  r   15  r
00000034927194507TAVG  204  r  211  r  238  r  262  r  254  r  248  r  205  r  209  r  215  r  223  r  248  r  246  r  251  r  245  r  218  r  223  r  207  r  211  r  192  r  205  r  195  r  208  r  232  r  238  r  226  r  224  r  212  r  238  r  256  r  230  r  232  r
00000034927194508TMAX  261  r  262  r  263  r  256  r  271  r  259  r  271  r  284  r  291  r  311  r  316  r  365  r  327  r  291  r  298  r  272  r  279  r  266  r  279  r  304  r  315  r  303  r  274  r  290  r  301  r  322  r  338  r  285  r  251  r  274  r  305  r
00000034927194508TMIN  134  r  136  r  142  r  141  r  133  r  110  r  147  r  182  r  183  r  148  r  129  r  167  r  164  r  217  r  200  r  149  r  201  r  182  r  188  r  162  r  150  r  160  r  177  r  121  r  153  r  140  r  167  r  201  r  108  r   79  r   90  r
00000034927194508PRCP   71  r    3  r    0T r   15  r    6  r    0T r    0  r    6  r    0T r    0  r    0  r    0  r    0  r    0  r    0  r    0  r    0  r   19  r   85  r    1  r    1  r    0  r    2  r    1  r    0  r    0  r    0  r    0  r    0  r    0  r    0  r
00000034927194508TAVG  191  r  202  r  198  r  193  r  200  r  184  r  210  r  230  r  233  r  234  r  230  r  263  r  246  r  254  r  243  r  218  r  224  r  200  r  217  r  225  r  234  r  237  r  211  r  205  r  226  r  233  r  249  r  224  r  185  r  176  r  201  r
00000034927194509TMAX  317  r  317  r  294  r  262  r  240  r  272  r  272  r  214  r  230  r  233  r  228  r  223  r  201  r  219  r  220  r  231  r  249  r  246  r  249  r  273  r  257  r  260  r  274  r  282  r  296  r  323  r  327  r  296  r  221  r  196  r-9999   
00000034927194509TMIN   85  r  183  r  162  r  112  r  141  r   62  r  115  r  143  r  128  r   89  r   84  r   27  r   65  r   59  r   86  r   85  r   58  r  116  r  151  r  168  r  101  r   83  r   80  r   76  r   91  r  104  r  102  r  102  r  112  r   40  r-9999   
00000034927194509PRCP    0  r    0  r    7  r    0  r    0T r    0  r    0  r   57  r    2  r    0T r    0  r    0  r    0  r    0  r    0  r    0  r    0  r    0  r   44  r    0  r    0  r    0  r    0  r    0  r    0  r    0  r    0  r    0  r   88  r    1  r-9999   
00000034927194509TAVG  210  r  240  r  224  r  181  r  180  r  164  r  187  r  155  r  166  r  161  r  146  r  129  r  131  r  138  r  146  r  139  r  152  r  173  r  187  r  212  r  167  r  158  r  166  r  175  r  192  r  203  r  210  r  195  r  142  r  109  r-9999   
00000034927194510TMAX  231  r  186  r  203  r  184  r  234  r  234  r  195  r  167  r  132  r  125  r  173  r  193  r  141  r  112  r  118  r  143  r  105  r  157  r  166  r  156  r  115  r   88  r   36  r   96  r  173  r  229  r  233  r  246  r  159  r  139  r  142  r
00000034927194510TMIN   81  r   92  r   76  r  103  r   81  r  119  r  118  r  105  r   81  r   52  r   20  r   82  r   44  r   20  r   77  r   85  r    7  r  -18  r   -5  r   72  r   17  r  -14  r  -19  r   -9  r   18  r   -6  r   26  r   11  r   94  r    5  r  -15  r
00000034927194510PRCP    0  r   30  r    0  r    0  r    0T r   19  r  179  r   50  r    0T r    0  r    0T r    0  r  181  r    1  r  130  r    4  r    0T r    0  r    0T r   25  r    2  r   60  r    2  r    0  r    0  r    0  r    0  r    0  r   62  r    0  r    0T r
00000034927194510TAVG  146  r  132  r  134  r  144  r  150  r  166  r  158  r  131  r   95  r   82  r   90  r  127  r   61  r   55  r   99  r  104  r   42  r   54  r   68  r   96  r   63  r    2  r    2  r   37  r  108  r   91  r  105  r  116  r  115  r   61  r   47  r
00000034927194511TMAX  165  r  153  r  127  r   73  r   47  r   69  r   76  r  146  r  192  r  192  r  192  r  194  r  213  r  141  r  113  r   89  r   56  r   28  r    0  r   22  r   72  r   87  r   39  r  -11  r    3  r   -8  r  125  r   53  r   37  r   10  r-9999   
00000034927194511TMIN   -5  r   92  r   14  r   34  r  -15  r  -53  r  -49  r  -24  r   48  r   66  r   48  r   26  r   11  r   17  r   35  r  -24  r  -11  r  -91  r -116  r -123  r -101  r  -79  r  -35  r  -43  r  -61  r  -76  r  -48  r   16  r    1  r   -1  r-9999   
00000034927194511PRCP    2  r   24  r    2  r    0  r    2  r    0  r    0  r    0  r    0  r   23  r    0  r    0T r    0  r    0T r    0  r    0  r    0  r    0  r    0  r    0T r    0  r    0  r    1  r    0  r    0T r    0  r   26  r   41  r  262  r  410  r-9999   
00000034927194511TAVG   69  r  105  r   63  r   57  r    7  r   -1  r   11  r   51  r  100  r  128  r  100  r   89  r   96  r   56  r   64  r   26  r   26  r  -58  r  -72  r  -64  r  -33  r  -12  r    0  r  -31  r  -32  r  -45  r   25  r   42  r   12  r    2  r-9999   
00000034927194512TMAX   26  r   15  r  -13  r  -46  r  -30  r  -29  r  -15  r  -71  r  -79  r -101  r  -89  r   62  r   17  r  -45  r   32  r   47  r   53  r   51  r   15  r  -70  r  -26  r   17  r   96  r   67  r   53  r   94  r   85  r   27  r   20  r   35  r   42  r
00000034927194512TMIN    1  r  -33  r  -81  r -119  r -194  r -108  r  -85  r -155  r -159  r -194  r -142  r -142  r  -47  r -148  r -153  r  -72  r    3  r   -1  r -151  r -178  r -150  r -111  r  -77  r  -49  r  -26  r  -29  r   11  r    6  r    5  r   -5  r    4  r
00000034927194512PRCP  151  r    1  r    5  r    0  r    0T r    6  r   69  r    8  r    0  r    0T r    0T r  165  r  100  r    0T r   32  r    0T r  120  r   68  r   24  r    0  r    0  r    0  r    0  r    0  r    0  r    0  r   90  r   50  r   95  r    0  r    5  r
00000034927194512TAVG   12  r  -11  r  -58  r  -88  r -105  r  -50  r  -45  r -102  r -120  r -144  r -124  r  -13  r  -24  r -116  r  -31  r   -2  r   28  r   21  r  -90  r -134  r -101  r  -52  r   36  r    6  r    2  r   21  r   22  r   16  r   10  r   10  r   18  r
00000034927194601TMAX   72  r   17  r    8  r   -4  r  -23  r  -31  r   26  r   10  r   -3  r   44  r   79  r   84  r  119  r  104  r   85  r   -9  r  -38  r  -21  r   -3  r  -14  r  -18  r  -85  r -153  r  -90  r  -97  r -117  r -162  r -125  r  -67  r   43  r   24  r
00000034927194601TMIN   14  r  -10  r  -24  r  -53  r  -55  r  -65  r  -53  r  -17  r  -39  r  -60  r  -67  r   22  r   70  r   62  r  -12  r  -41  r -126  r -131  r  -32  r  -29  r -109  r -158  r -249  r -246  r -128  r -184  r -268  r -267  r -208  r  -85  r    3  r
00000034927194601PRCP   46  r   45  r    0  r    0T r    0  r    0  r    0  r    0T r    0T r    0T r    0  r   42  r    1  r   58  r  263  r  143  r   22  r    4  r    0  r   23  r   35  r    0  r    0  r    0  r    0  r    0  r    0  r    0  r    0  r    0  r   23  r
00000034927194601TAVG   40  r    2  r  -11  r  -24  r  -40  r  -50  r  -12  r   -7  r  -22  r  -30  r    4  r   52  r   92  r   86  r    4  r  -28  r  -78  r  -46  r  -16  r  -22  r  -47  r -117  r -204  r -165  r -114  r -164  r -214  r -201  r -129  r  -18  r   10  r
00000034927194602TMAX   19  r   11  r   13  r  -13  r   77  r   93  r   69  r   32  r   39  r  104  r  106  r   74  r   73  r   44  r   20  r   -8  r  -19  r   24  r   34  r  -15  r   69  r  144  r  144  r  164  r  100  r   42  r   28  r   39  r-9999   -9999   -9999   
00000034927194602TMIN  -19  r  -43  r -112  r -109  r  -16  r   48  r    8  r  -14  r  -34  r   35  r   29  r   18  r   13  r   14  r  -14  r  -32  r  -59  r  -31  r  -24  r  -82  r  -15  r   56  r   99  r   32  r   29  r    2  r  -18  r  -72  r-9999   -9999   -9999   
00000034927194602PRCP    0  r    0  r    0  r    0T r    0  r    0  r    0  r    6  r    0T r    0  r   15  r  174  r   75  r  225  r  127  r    0  r    0T r   52  r   58  r    0  r    0  r  144  r    0  r    0  r    5  r   20  r   48  r    0  r-9999   -9999   -9999   
00000034927194602TAVG   -1  r  -20  r  -57  r  -54  r   38  r   61  r   40  r    4  r   14  r   76  r   65  r   41  r   44  r   24  r    4  r  -21  r  -43  r    3  r    3  r  -43  r   46  r   96  r  120  r   92  r   40  r   23  r   -3  r  -22  r-9999   -9999   -9999   
00000034927194603TMAX   46  r   42  r   99  r  101  r   99  r   97  r  116  r   84  r  165  r  129  r  122  r   84  r   74  r   35  r   56  r   82  r   77  r   89  r   77  r  102  r   97  r  116  r  129  r  152  r   94  r   94  r   66  r   79  r   61  r   66  r   84  r
00000034927194603TMIN  -31  r  -44  r  -16  r    3  r    1  r   27  r   28  r   20  r  -14  r   58  r   40  r   57  r   29  r    3  r    8  r   -2  r  -10  r   26  r   32  r   20  r   13  r   43  r   60  r   83  r   43  r   28  r   20  r   20  r   27  r    4  r    7  r
00000034927194603PRCP    0  r    0  r    2  r    0  r    0  r    0  r    1  r    0T r    0T r   50  r    0T r   80  r   73  r    2  r    0T r   12  r    0  r    0  r   24  r    0  r    0  r    0  r    0T r   15  r   10  r   13  r  183  r   44  r  114  r  157  r    1  r
00000034927194603TAVG   -8  r   -8  r   26  r   36  r   39  r   48  r   56  r   45  r   70  r   86  r   76  r   66  r   46  r   14  r   23  r   28  r   35  r   51  r   50  r   52  r   46  r   72  r   84  r  104  r   63  r   60  r   43  r   45  r   41  r   27  r   40  r
00000034927194604TMAX   64  r   71  r   79  r  134  r  195  r  224  r  233  r  190  r  137  r  182  r  210  r  183  r  136  r   99  r  134  r  171  r  118  r  162  r  212  r  212  r  194  r  211  r  228  r  245  r  295  r  227  r  157  r  198  r  251  r  236  r-9999   
00000034927194604TMIN   25  r   16  r  -14  r   43  r    4  r   43  r   53  r   88  r   37  r   26  r   41  r   74  r   72  r   37  r    0  r   31  r  -18  r  -12  r   13  r   27  r   52  r   49  r   40  r   60  r   98  r  122  r  100  r   84  r  124  r  108  r-9999   
00000034927194604PRCP   71  r   47  r    0  r    0T r    0  r    0  r    0T r    0  r    0  r    0  r    0  r    0  r   10  r   24  r    0  r    0  r    0  r    0  r    0  r    0  r    0  r    0  r    0  r    0  r    0  r  155  r   33  r    0T r    1  r    0  r-9999   
00000034927194604TAVG   46  r   45  r   28  r   79  r  108  r  135  r  135  r  122  r   89  r  100  r  125  r  117  r  100  r   65  r   64  r  110  r   49  r   74  r  102  r  117  r  126  r  138  r  148  r  156  r  190  r  135  r  128  r  145  r  182  r  167  r-9999   
00000034927194605TMAX  264  r  241  r  225  r  228  r  243  r  249  r  257  r  241  r  246  r  205  r  154  r  171  r  256  r  243  r  256  r  267  r  287  r  291  r  283  r  281  r  267  r  254  r  287  r  243  r  191  r  257  r  240  r  245  r  256  r  232  r  263  r
00000034927194605TMIN   95  r  148  r  134  r  124  r  124  r  122  r  120  r  100  r  109  r  122  r   98  r  101  r   95  r   69  r   95  r  132  r  155  r  170  r  165  r  159  r  150  r  147  r  162  r  153  r  137  r  102  r  147  r  135  r  143  r  131  r  117  r
00000034927194605PRCP    0  r    0  r   10  r    0T r    0  r    0  r    5  r    0T r    0  r    6  r    0T r    0  r    0  r    0  r    0  r    0  r    0  r    0  r    0  r    0  r    0  r    0  r    0  r    8  r    0  r    0  r   60  r    2  r   25  r    2  r   71  r
00000034927194605TAVG  184  r  192  r  174  r  172  r  176  r  172  r  180  r  169  r  178  r  147  r  122  r  136  r  182  r  174  r  182  r  196  r  222  r  236  r  221  r  212  r  203  r  203  r  213  r  198  r  161  r  183  r  182  r  193  r  186  r  178  r  177  r
00000034927194606TMAX  266  r  276  r  281  r  286  r  288  r  313  r  331  r  298  r  316  r  295  r  312  r  297  r  288  r  291  r  298  r  255  r  232  r  266  r  237  r  232  r  269  r  284  r  286  r  302  r  322  r  318  r  318  r  335  r  312  r  282  r-9999   
00000034927194606TMIN  132  r  126  r  128  r  125  r  144  r  134  r  147  r  164  r  171  r  162  r  139  r  167  r  158  r  187  r  168  r  189  r  150  r  144  r  166  r  170  r  164  r  135  r  123  r  135  r  149  r  170  r  189  r  174  r  209  r  206  r-9999   
00000034927194606PRCP    4  r    0T r    0  r    0  r    0  r    0  r    0  r    0  r  104  r    0  r    0  r    0  r    0T r   11  r   10  r   88  r   72  r    0  r  147  r  103  r    0  r    0  r    0  r    0  r    0  r    0  r    0  r    0  r    0  r   53  r-9999   
00000034927194606TAVG  197  r  204  r  213  r  217  r  222  r  236  r  248  r  238  r  246  r  230  r  236  r  235  r  210  r  223  r  231  r  206  r  189  r  205  r  180  r  194  r  211  r  210  r  218  r  233  r  243  r  256  r  257  r  264  r  260  r  237  r-9999   
00000034927194607TMAX  282  r  276  r  246  r  246  r  247  r  244  r  251  r  283  r  306  r  308  r  265  r  274  r  234  r  257  r  291  r  310  r  306  r  335  r  313  r  320  r  345  r  331  r  350  r  352  r  355  r  310  r  323  r  321  r  318  r  316  r  335  r
00000034927194607TMIN  187  r  155  r  132  r  147  r  183  r  146  r  136  r  177  r  174  r  148  r  160  r  157  r  156  r  169  r  173  r  164  r  152  r  157  r  186  r  144  r  175  r  186  r  134  r  180  r  170  r  210  r  196  r  173  r  157  r  147  r  124  r
00000034927194607PRCP    0T r    1  r    0  r   10  r    0  r   12  r   42  r    6  r    0  r    0  r    0  r    2  r   72  r    0  r    0  r    0  r    0T r    0  r    0  r    0  r   24  r    0  r    0  r    0  r    0  r   25  r    0  r    0  r    0  r    0  r    0  r
00000034927194607TAVG  232  r  213  r  194  r  198  r  210  r  193  r  192  r  230  r  240  r  237  r  212  r  207  r  184  r  216  r  232  r  232  r  240  r  248  r  250  r  244  r  252  r  256  r  273  r  277  r  268  r  258  r  269  r  255  r  245  r  238  r  236  r
00000034927194608TMAX  342  r  340  r  290  r  267  r  305  r  289  r  294  r  305  r  315  r  331  r  344  r  333  r  333  r  343  r  338  r  336  r  331  r  360  r  355  r  348  r  335  r  352  r  342  r  355  r  365  r  355  r  298  r  298  r  267  r  224  r  272  r
00000034927194608TMIN  160  r  180  r  188  r  166  r  134  r  185  r  152  r  114  r  154  r  143  r  161  r  150  r  160  r  143  r  157  r  169  r  165  r  139  r  156  r  194  r  172  r  173  r  191  r  176  r  189  r  199  r  199  r  200  r  146  r  166  r  146  r
00000034927194608PRCP    0  r    0  r    0  r    1  r    0  r    0  r    0  r    0  r    0  r    0  r    0  r    0  r    0  r    0  r    0  r    0  r    0  r    0  r    0  r    0  r    0  r    0  r    0  r    0  r    0  r    0  r    0T r    0  r   90  r  145  r    0  r
00000034927194608TAVG  254  r  258  r  233  r  220  r  222  r  228  r  224  r  211  r  241  r  246  r  262  r  250  r  248  r  248  r  251  r  255  r  250  r  256  r  265  r  264  r  256  r  268  r  275  r  273  r  264  r  276  r  235  r  228  r  192  r  191  r  195  r
00000034927194609TMAX  282  r  308  r  312  r  315  r  315  r  323  r  323  r  330  r  332  r  351  r  353  r  325  r  296  r  262  r  252  r  259  r  241  r  253  r  261  r  292  r  247  r  276  r  216  r  215  r  239  r  225  r  195  r  160  r  177  r  185  r-9999   
00000034927194609TMIN  135  r  174  r  183  r  170  r  188  r  170  r  156  r  153  r  152  r  136  r  126  r  156  r  195  r  128  r   61  r   94  r  103  r   66  r   89  r   65  r  134  r   89  r  146  r   89  r   48  r  116  r   97  r   71  r  -14  r   46  r-9999   
00000034927194609PRCP    0  r    0  r    0  r    0  r   12  r    0  r    0  r    0  r    0  r    0  r    0  r    0  r    0  r    0  r    0T r    0  r    0  r    0  r    0  r    0  r    0  r    0  r    0T r    0  r    0T r    0T r    0  r    6  r    0T r    0  r-9999   
00000034927194609TAVG  212  r  240  r  241  r  237  r  239  r  243  r  237  r  233  r  240  r  242  r  231  r  244  r  235  r  182  r  158  r  171  r  162  r  152  r  160  r  175  r  174  r  170  r  164  r  144  r  150  r  161  r  140  r  100  r   82  r  115  r-9999   
00000034927194610TMAX  230  r  190  r  156  r  139  r  147  r  165  r  201  r  241  r-9999   -9999   -9999   -9999   -9999   -9999   -9999   -9999   -9999   -9999   -9999     123  r  144  r  177  r  182  r  190  r  195  r   36  r   29  r   45  r   64  r  105  r  144  r
00000034927194610TMIN   31  r   96  r   63  r   34  r    1  r    8  r  103  r  120  r   76  r   80  r   94  r   57  r   88  r   63  r   16  r   -7  r   53  r   22  r  -17  r   -1  r  -11  r   23  r  137  r  105  r   33  r   -8  r  -27  r   -2  r  -16  r   13  r   29  r
00000034927194610PRCP   90  r    0T r  136  r    0T r    0  r    0T r    2  r   28  r  110  r    0T r    8  r    0  r   27  r  380  r   10  r    1  r    0  r    0  r    1  r    0T r    0T r    2  r   19  r    5  r    1  r  122  r    0T r    0  r    0T r    0  r    0T r
00000034927194610TAVG  114  r  135  r  104  r   80  r   62  r   81  r  140  r  161  r  126  r  128  r  113  r   94  r  112  r   73  r   43  r   66  r   94  r   49  r   41  r   58  r   55  r   96  r  153  r  142  r  104  r    2  r    4  r   13  r   14  r   45  r   68  r
00000034927194611TMAX   96  r   37  r   10  r   62  r   73  r  114  r   64  r  116  r  195  r  218  r  202  r  200  r   71  r   62  r  144  r  190  r   84  r  184  r  227  r  152  r   97  r   52  r   79  r   89  r   74  r  116  r  114  r  102  r  121  r   89  r-9999   
00000034927194611TMIN   17  r  -18  r  -18  r   -5  r  -42  r    3  r  -39  r  -49  r  -35  r   41  r   34  r   67  r   24  r   27  r   22  r   75  r   28  r   58  r  103  r   41  r   19  r    1  r  -14  r  -42  r  -22  r  -21  r  -41  r  -49  r  -32  r    8  r-9999   
00000034927194611PRCP    0  r    0T r    0T r    0  r    0T r    0T r    0T r    0T r    0  r    0  r    2  r   44  r   27  r    1  r    0T r    1  r    0T r    3  r    5  r   46  r    0  r    0  r    0  r    0T r    0T r    0T r    0T r    0T r    0T r    0  r-9999   
00000034927194611TAVG   38  r   10  r   -3  r   12  r    2  r   46  r   -8  r   13  r   60  r  101  r  104  r  142  r   35  r   38  r   81  r  136  r   59  r  118  r  162  r   91  r   52  r   13  r   15  r    5  r   21  r   37  r    9  r   12  r   32  r   43  r-9999   
00000034927194612TMAX   80  r  112  r  139  r  155  r  106  r  104  r   77  r   94  r   79  r   44  r   30  r    2  r  -33  r  -38  r  -50  r  -23  r  -98  r -126  r  -86  r  -74  r   13  r   49  r  -46  r  -18  r    5  r   20  r   84  r   82  r   64  r   72  r   41  r
00000034927194612TMIN   36  r   27  r   23  r   45  r   15  r  -13  r  -30  r   -4  r   -9  r  -10  r  -26  r  -88  r  -93  r  -85  r  -92  r -129  r -164  r -209  r -211  r -210  r -139  r -109  r -129  r -113  r -122  r  -91  r   12  r    1  r   19  r    7  r    3  r
00000034927194612PRCP   15  r    0T r    0  r    0  r    0  r    0  r    0  r    0  r    0  r    0  r   11  r    0  r   23  r    0T r    0  r    0  r    1  r    0  r    0  r    0  r    0  r    0  r    0  r    0  r    0  r    0T r    0  r   99  r   68  r    0  r   39  r
00000034927194612TAVG   52  r   51  r   70  r   91  r   50  r   32  r   17  r   28  r   18  r    9  r   -1  r  -54  r  -62  r  -58  r  -73  r  -89  r -133  r -174  r -161  r -152  r  -60  r  -48  r  -90  r  -74  r  -78  r  -28  r   47  r   38  r   38  r   37  r    8  r
00000034927194701TMAX   17  r    2  r  -53  r  -76  r  -47  r   -9  r   21  r   14  r  -41  r  -27  r  -14  r    6  r   45  r  -16  r  -19  r  -25  r  -38  r  -37  r  -20  r  -21  r  -22  r  -11  r    3  r   -5  r  -30  r -120  r  -26  r   41  r  -62  r -158  r -162  r
00000034927194701TMIN   -9  r  -56  r -112  r -112  r  -99  r  -62  r  -29  r  -42  r -111  r -102  r  -53  r -109  r  -28  r  -58  r  -45  r  -61  r  -71  r  -78  r  -69  r  -55  r  -88  r -107  r  -65  r -149  r -124  r -262  r -175  r  -66  r -164  r -303  r -205  r
00000034927194701PRCP    9  r    3  r    0T r    0T r    0  r   12  r   15  r   28  r   76  r    0T r    0  r    4  r   21  r   17  r    0  r    0  r    0  r    0T r    2  r   79  r    0  r   37  r   28  r   63  r    7  r    0  r   24  r    2  r   16  r    0  r   12  r
00000034927194701TAVG   -3  r  -32  r  -95  r  -93  r  -73  r  -27  r   -5  r  -26  r  -78  r  -62  r  -36  r  -21  r  -10  r  -35  r  -31  r  -48  r  -62  r  -58  r  -40  r  -38  r  -55  r  -59  r  -41  r  -54  r  -84  r -202  r  -65  r  -20  r -128  r -200  r -185  r
00000034927194702TMAX -165  r -115  r  -82  r  -75  r   -3  r  109  r   64  r   17  r   -1  r   35  r   56  r   27  r   17  r   21  r   29  r   96  r   26  r   18  r   14  r   35  r  143  r  124  r  130  r  171  r  190  r  215  r  161  r   67  r-9999   -9999   -9999   
00000034927194702TMIN -194  r -252  r -264  r -212  r -164  r  -20  r    8  r  -53  r  -44  r  -28  r  -48  r  -79  r  -88  r  -68  r  -16  r   18  r    8  r    1  r   -7  r   -5  r   15  r   52  r   34  r   -4  r   33  r   16  r   13  r  -24  r-9999   -9999   -9999   
00000034927194702PRCP   13  r    0  r    0  r    0  r    0  r    0  r   13  r    0T r   61  r    0  r    0  r    0  r    0  r    0  r    2  r    0  r   51  r    0T r   12  r    0T r    0  r   19  r    0  r    0T r    0T r    0  r   51  r    0  r-9999   -9999   -9999   
00000034927194702TAVG -182  r -174  r -173  r -150  r  -77  r   39  r   30  r  -37  r  -14  r    0  r   -2  r  -28  r  -34  r   -9  r   12  r   39  r   14  r    4  r   -1  r   13  r   60  r   83  r   68  r   80  r  108  r  108  r   45  r   11  r-9999   -9999   -9999   
00000034927194703TMAX  157  r  182  r  129  r   50  r   53  r  102  r  200  r  243  r  155  r  210  r  155  r   87  r   89  r   83  r  163  r  173  r   26  r   95  r  134  r  210  r  227  r  150  r  108  r  180  r  237  r  246  r  256  r  277  r  220  r  209  r  269  r
00000034927194703TMIN   23  r  107  r   31  r   12  r   -3  r  -13  r   86  r  145  r   66  r   57  r  -11  r  -48  r   24  r   -8  r  -10  r   19  r  -31  r  -78  r  -42  r   -2  r    9  r   83  r   35  r   19  r   66  r   24  r   54  r   62  r  131  r   19  r   44  r
00000034927194703PRCP    0  r    5  r    5  r   20  r    0  r    0  r    0  r    0  r    0T r    0T r   56  r    0  r    0  r    0  r    0  r    0T r   24  r    0  r    0  r    0  r    0  r   49  r   15  r    2  r    0T r    0  r    0  r    0  r    0T r    0  r    0  r
00000034927194703TAVG   82  r  137  r   47  r   31  r   15  r   41  r  140  r  173  r   81  r  114  r   12  r   16  r   50  r   24  r   64  r   75  r  -12  r   -1  r   40  r   99  r  134  r  102  r   62  r   92  r  138  r  136  r  154  r  173  r  167  r  106  r  156  r
00000034927194704TMAX  286  r  311  r  272  r  229  r  203  r  187  r  177  r  167  r  188  r  241  r  187  r   96  r   54  r   51  r  126  r  111  r  122  r  157  r  198  r  186  r  202  r  219  r  242  r  237  r  203  r  153  r  175  r  162  r  187  r  200  r-9999   
00000034927194704TMIN   51  r   43  r  100  r   91  r  104  r   76  r  -27  r   57  r   72  r   32  r   73  r   38  r   14  r    4  r   37  r   42  r   19  r   65  r  100  r   69  r   35  r   38  r   24  r   52  r   42  r   88  r   55  r   81  r   52  r   27  r-9999   
00000034927194704PRCP    0  r    0  r    0  r    0  r   63  r    0  r    0  r    0T r    3  r    0  r    0T r    0  r   53  r  106  r   33  r    0  r   15  r    0  r    2  r    1  r    0  r    0  r    0  r    0  r    0  r   20  r    0  r   15  r    0  r    0T r-9999   
00000034927194704TAVG  161  r  172  r  183  r  160  r  138  r  129  r   77  r  110  r  121  r  145  r   96  r   57  r   31  r   26  r   68  r   71  r   68  r  106  r  136  r  121  r  125  r  132  r  140  r  137  r  125  r  109  r  111  r  111  r  126  r  109  r-9999   
00000034927194705TMAX  198  r  246  r  205  r  258  r  141  r  193  r  207  r  224  r  231  r  242  r  223  r  212  r  251  r  251  r  225  r  251  r  271  r  263  r  273  r  212  r  236  r  244  r  188  r  228  r  261  r  286  r  283  r  290  r  309  r  302  r  252  r
00000034927194705TMIN   41  r   29  r   91  r  114  r   59  r   20  r   19  r   68  r  101  r   88  r   97  r   98  r  130  r   70  r   60  r   70  r   71  r   92  r   97  r  151  r  123  r  158  r   91  r   71  r   69  r   87  r   87  r   94  r  117  r  154  r  146  r
00000034927194705PRCP    0  r    0  r    0  r    0  r    0  r    0  r    0  r    0  r    0  r    0  r    0  r    0  r    0T r    0  r    0  r    0  r    0  r    0T r    0  r   27  r    1  r    0  r    0  r    0  r    0  r    0  r    0  r    0  r    0  r   10  r    0  r
00000034927194705TAVG  119  r  145  r  144  r  167  r   98  r   94  r  127  r  142  r  160  r  166  r  161  r  163  r  181  r  170  r  156  r  171  r  181  r  177  r  196  r  174  r  180  r  191  r  129  r  158  r  188  r  194  r  195  r  213  r  225  r  230  r  186  r
00000034927194706TMAX  266  r  266  r  266  r  253  r  225  r  249  r  283  r  331  r  267  r  266  r  298  r  283  r  290  r  342  r  353  r  335  r  323  r  328  r  314  r  323  r  293  r  231  r  262  r  287  r  317  r  336  r  348  r  360  r  351  r  321  r-9999   
00000034927194706TMIN   79  r  105  r  103  r  173  r  123  r   46  r   46  r  111  r  159  r  110  r  111  r  163  r  136  r  161  r  167  r  159  r  153  r  169  r  153  r  158  r  173  r  163  r  176  r  151  r  142  r  150  r  158  r  169  r  193  r  176  r-9999   
00000034927194706PRCP    0  r    0  r    0  r    0T r    0  r    0  r    0  r    0  r    0T r    0  r    0  r    0  r    0  r    0  r    0  r    0  r    0  r    0  r    0  r  166  r  215  r  116  r    2  r    0  r    0  r    0  r    0  r    0  r    0  r    0  r-9999   
00000034927194706TAVG  191  r  202  r  197  r  208  r  176  r  163  r  184  r  216  r  207  r  200  r  212  r  224  r  224  r  252  r  272  r  264  r  246  r  244  r  248  r  236  r  218  r  190  r  212  r  230  r  232  r  250  r  264  r  273  r  279  r  256  r-9999   
00000034927194707TMAX  320  r  291  r  291  r  325  r  335  r  308  r  293  r  343  r  368  r  376  r  361  r  305  r  261  r  282  r  318  r  325  r  310  r  300  r  308  r  320  r  310  r  314  r  280  r  304  r  276  r  277  r  310  r  321  r  261  r  253  r  258  r
00000034927194707TMIN  154  r  148  r  154  r  159  r  173  r  184  r  182  r  182  r  210  r  184  r  185  r  216  r  202  r  184  r  186  r  232  r  190  r  170  r  161  r  180  r  204  r  191  r  186  r  188  r  191  r  116  r  121  r  155  r  192  r  151  r  132  r
00000034927194707PRCP   10  r   30  r    0  r    0  r    0  r  159  r    0T r    0  r    0  r    0  r    0  r   79  r    5  r   86  r    0  r    0  r    0  r    0  r    0  r    0  r   42  r  340  r    3  r    0  r    0  r    0  r    0  r    0  r   10  r   22  r   55  r
00000034927194707TAVG  236  r  214  r  224  r  248  r  265  r  219  r  227  r  266  r  296  r  294  r  282  r  246  r  226  r  228  r  258  r  274  r  261  r  238  r  237  r  250  r  254  r  236  r  229  r  240  r  231  r  213  r  220  r  240  r  204  r  199  r  185  r
00000034927194708TMAX  228  r  264  r  252  r  221  r  244  r  273  r  275  r  305  r  327  r  291  r  266  r  278  r  299  r  269  r  271  r  242  r  233  r  266  r  256  r  264  r  285  r  290  r  298  r  298  r  310  r  317  r  312  r  294  r  320  r  238  r  236  r
00000034927194708TMIN  157  r  148  r  151  r  149  r  135  r  129  r  142  r  133  r  137  r  167  r  205  r  173  r  157  r  170  r  168  r  171  r  140  r  163  r  132  r  103  r  130  r  137  r  144  r  143  r  122  r  151  r  180  r  187  r  139  r  161  r  138  r
00000034927194708PRCP  142  r    0  r    0  r   40  r   76  r    0  r    0  r    0  r    0  r    0  r    0T r    2  r    0  r   30  r   50  r   63  r   35  r    7  r    0  r    0  r    0  r    0  r    0  r    0  r    0  r    0  r    0  r   14  r    0  r  154  r    9  r
00000034927194708TAVG  193  r  208  r  204  r  172  r  184  r  205  r  215  r  228  r  240  r  236  r  231  r  218  r  232  r  218  r  206  r  197  r  187  r  201  r  186  r  182  r  210  r  219  r  225  r  229  r  223  r  237  r  236  r  228  r  228  r  189  r  180  r
00000034927194709TMAX  250  r  256  r  242  r  233  r  232  r  223  r  203  r  210  r  232  r  233  r  261  r  245  r  219  r  207  r  234  r  269  r  249  r  242  r  262  r  268  r  263  r  246  r  249  r  256  r  242  r  186  r  193  r  211  r  202  r  232  r-9999   
00000034927194709TMIN   94  r  133  r  119  r  100  r  149  r  144  r  124  r  140  r  108  r   99  r  118  r  156  r  124  r  109  r   71  r  102  r  151  r   72  r   66  r   60  r   91  r  127  r  138  r  129  r  118  r  132  r  130  r   76  r   71  r   95  r-9999   
00000034927194709PRCP    0T r    1  r   40  r    8  r   12  r   24  r   16  r    8  r    1  r    0  r    0  r    0  r    0  r    0  r    0  r    0  r    0  r    0  r    0  r    0  r    0  r    0  r    0  r    0  r    1  r   77  r    1  r    0  r    0  r    0  r-9999   
00000034927194709TAVG  178  r  190  r  181  r  172  r  186  r  166  r  158  r  169  r  165  r  168  r  190  r  189  r  165  r  157  r  139  r  179  r  188  r  159  r  166  r  164  r  183  r  180  r  186  r  178  r  174  r  152  r  153  r  145  r  132  r  148  r-9999   
